:1000000085C00DC7A8C0A7C0A6C0A5C0A4C0A3C076
:10001000A2C0A1C0A0C09FC09EC09DC09CC09BC0EC
:100020009AC099C098C09AC698C57AC679C678C64B
:1000300077C676C675C642C55BC572C671C670C640
:100040004FC540C578C646C559C56AC669C61CC5F0
:1000500043C5DEC61BC55EC557C562C661C680C640
:1000600037C516C531C52CC55BC55AC659C620C58E
:10007000CDC612C50FC532C559C552C651C650C6E8
:1000800015C50EC523C557C55CC54AC649C695C525
:1000900009C504C50FC526C55AC542C641C693C584
:1000A00098C502C57EC508C55EC53AC639C638C6FC
:1000B0007EC536C66AC55DC533C632C694C530C670
:1000C000E1C469C52DC65BC52BC62AC629C628C68C
:1000D00027C626C625C624C682C522C621C6CAC5CD
:1000E0001FC6E6C5FFC51CC61BC61AC6B9C5AEC528
:1000F000CBC5E8C5EDC500C674C584C511C6A4C589
:10010000CDC5A0C59DC502C68CC5BF0111241FBEAB
:10011000CFE5D4E0DEBFCDBF12E0A0E6B0E0EAE17B
:10012000F0E102C005900D92A83CB107D9F722E09A
:10013000A8ECB2E001C01D92AB3EB207E1F710E0BF
:10014000C6E8D0E003C02197FE015FD7C538D107CC
:10015000D1F7CDD060C754CF10BC83E389B980B547
:10016000866880BD539A08955D9BFECF8CB9089533
:10017000CF93DF93EC018881882329F02196F4DF67
:1001800089918111FCCFDF91CF910895EF92FF9279
:100190000F931F9389EC92E0B3D320E0863D920742
:1001A00091F40F2EF2E7EF2EF0E0FF2EF02D06E790
:1001B00010E022E030E040E050E060E070E089ECE8
:1001C00092E0E2D22AC020E08D3D920791F40F2EFA
:1001D000F2E7EF2EF0E0FF2EF02D06E710E022E030
:1001E00030E040E050E061E070E089EC92E0CCD299
:1001F00014C0815C904089F40F2EFCE6EF2EF0E0F5
:10020000FF2EF02D06ED10E022E030E040E050E05F
:1002100060E070E089EC92E0B7D21F910F91FF90FF
:10022000EF900895EF92FF920F931F9389EC92E065
:1002300067D320E08637920761F589EC92E05CD3C2
:10024000009719F0019799F04DC00F2EFCE6EF2EA4
:10025000F0E0FF2EF02D06ED10E025E030E040E06C
:1002600050E060E070E089EC92E08ED23BC00F2E4F
:10027000F6E6EF2EF0E0FF2EF02D0DED10E023E07E
:1002800030E040E050E060E070E089EC92E07CD249
:1002900029C020E0863D9207E1F489EC92E02CD35E
:1002A000009719F0049799F01DC00F2EF0E6EF2E7D
:1002B000F0E0FF2EF02D01EC10E023E030E040E014
:1002C00050E060E070E089EC92E05ED20BC05EDF4F
:1002D00009C08D5D904031F489EC92E00DD3029716
:1002E00009F454DF1F910F91FF90EF900895A59AA4
:1002F00033DF80E890E03CDF88EC92E077D37894BD
:1003000089EC92E095D10F2EF2E7EF2EF0E0FF2E70
:10031000F02D06E710E022E030E040E050E060E041
:1003200070E089EC92E030D289EC92E057D288EC10
:1003300092E092D38823D9F388EC92E094D3C82F2B
:1003400013DFC13821F489EC92E0FAD211C0C2382F
:1003500021F489EC92E0D8D20BC0CA3011F0C43835
:1003600011F460DF05C0C93811F0C33809F40EDF9D
:1003700089EC92E049D189EC92E030D2D8CFEF926B
:10038000FF920F931F93E12CF12C01E010E022E08B
:1003900030E043E050E067E070E089EC92E008D0A4
:1003A00088EC92E0E6D21F910F91FF90EF900895B4
:1003B000EF92FF920F931F93FC016083718353832D
:1003C00042833583248317830683E086F18641B315
:1003D00081E090E09C0102C0220F331F6A95E2F792
:1003E000242B21BB34B3BC01028002C0660F771FEF
:1003F0000A94E2F7AC01048002C0440F551F0A942E
:10040000E2F7462B242F232BAC01068002C0440FB9
:10041000551F0A94E2F7422B9C01008402C0220F70
:10042000331F0A94E2F7242B24BB45B39C010280BE
:1004300002C0220F331F0A94E2F7242B25BB42B3DC
:100440009C01008002C0220F331F0A94E2F7242B84
:1004500022BB25B302C0880F991FEA94E2F780956A
:10046000822385BB1F910F91FF90EF900895CF934A
:10047000DF93FC0125B381E090E0028002C0880F89
:10048000991F0A94E2F78095822385BB613071053C
:1004900061F425B381E090E0048002C0880F991FC9
:1004A0000A94E2F7822B85BB52C025B381E090E02D
:1004B000048002C0880F991F0A94E2F78095822376
:1004C00085BB45C0CE01022E02C0959587950A9442
:1004D000E2F780FF0BC045B3CD01068002C0880F54
:1004E000991F0A94E2F7842B85BB0CC095B3AD012C
:1004F000068002C0440F551F0A94E2F7842F8095AE
:10050000892385BB85B3BD01008402C0660F771FB8
:100510000A94E2F7682B65BB55B3BD01008402C0A5
:10052000660F771F0A94E2F7962F9095952395BB57
:100530002150310938F625B381E090E0028002C0F5
:10054000880F991F0A94E2F7822B85BB07C027E02A
:1005500030E0C42FD0E0A1E0B0E0B4CFDF91CF9184
:100560000895462F60E070E082DF0895462F61E035
:1005700070E07DDF08950F931F93CF93DF93EC011D
:10058000062F142F60E2EDDF602F6068CE01E9DFF7
:10059000612F6064CE01E5DFDF91CF911F910F9154
:1005A0000895FC0145B321E030E0C901028002C09A
:1005B000880F991F0A94E2F7842B85BB42B3C901C7
:1005C000008002C0880F991F0A94E2F7842B82BB37
:1005D00092B3A901008002C0440F551F0A94E2F7AC
:1005E000842F8095892382BB83ED90E30197F1F7F7
:1005F00000C0000082B3008002C0220F331F0A94A3
:10060000E2F7282B22BB08950F931F93CF93DF931C
:100610008C0140E060E0AFDFC8EFD1E060E0C801EE
:10062000A5DF2197D9F7DF91CF911F910F91089501
:10063000CF93DF93EC01B5DF61E2CE0192DF63E09F
:10064000CE018FDF65ECCE018CDF64E0CE0189DF67
:1006500060E2CE0186DF6CE0CE0183DF60E8CE0190
:1006600080DF60E4CE017DDFCE01CEDFDF91CF9170
:100670000895DF92EF92FF920F931F93CF93DF9332
:100680008C0181E0672B09F480E0D82ED19450E0F2
:10069000EA01CC0FDD1FCC0FDD1F4C0F5D1FEA01FF
:1006A000C95BDF4FE12CF12C69916D25C8015EDF3C
:1006B0008FEFE81AF80A85E0E816F104A9F76D2D26
:1006C000C80154DFDF91CF911F910F91FF90EF9000
:1006D000DF9008959F92AF92BF92CF92DF92EF92F8
:1006E000FF920F931F93CF93DF937C016B0181E007
:1006F000672B09F480E0982E9194FA018081882379
:1007000061F1319680E090E0019621912111FCCFBA
:100710008C010F9714F00EE010E0101611068CF00B
:100720008EE090E09C01201B310B8901C901880FEC
:10073000991F080F191F000F111F101611067CF0CA
:1007400017C0EA015A01A00EB11E4991B601C701B6
:1007500090DFCA15DB05C9F7E3CF04E510E0C0E080
:10076000D0E0692DC70102DF21960C171D07C9F7DC
:10077000DF91CF911F910F91FF90EF90DF90CF907D
:10078000BF90AF909F900895EF92FF920F931F93A9
:10079000DC011B967C936E931A971D965C934E9387
:1007A0001C971F963C932E931E9751961C930E9365
:1007B0005097121613066CF4F7015296220F331F4E
:1007C000E20EF31E819191918D939D93EE15FF059D
:1007D000C9F71F910F91FF90EF900895DF92EF926C
:1007E000FF920F931F93CF93DF93EC0140E060E003
:1007F000C2DE4889598960E070E0CE016BDFEE848B
:10080000FF8485E0E816F104F4F51E141F0434F5A6
:10081000DD24D39400E010E005C085E0E816F10483
:10082000ECF04EC04D2D60E0CE01A5DEEC85FD85DF
:10083000E00FF11F3996EE0FFF1FEC0FFD1F4081F7
:10084000518160E070E0CE0145DF0F5F1F4FEE8405
:10085000FF84D3940E151F052CF3DFCF11E01E0D7E
:10086000412F60E0CE0187DE45EE50E060E070E0B1
:10087000CE0130DF8FEFE81AF80A1F5F85E0E81637
:10088000F10474F31DC0FF24F39400E010E04F2D39
:1008900060E0CE0170DEEC85FD85E00FF11F39963A
:1008A000EE0FFF1FEC0FFD1F4081518160E070E0F3
:1008B000CE0110DF0F5F1F4FF39486E0F812E7CFF1
:1008C0004A854F5F8C85481B60E0CE0154DEEA8587
:1008D000FB853996EE0FFF1FEC0FFD1F4081518104
:1008E00061E070E0CE01F6DEDF91CF911F910F91B4
:1008F000FF90EF90DF900895FC0182859385089525
:10090000FC01808991890895FC01228533852F5F40
:100910003F4F86859785281739078CF433872287C0
:1009200044855585841B950B06974CF0241B350B8D
:100930002530310521F44F5F5F4F55874487089577
:10094000FC01228533851216130694F421503109D7
:100950003387228786859785821B930B059744F002
:1009600084859585281739071CF401979587848716
:100970000895FC011082089581E090E020E030E0CD
:1009800070E0AB01022E02C0559547950A94E2F73C
:1009900040FD01962F5F3F4F2830310591F7817060
:1009A000089521E02093E1021092E0021092DF020C
:1009B0006093DE022093DD02DFDF8093DC028C9AFD
:1009C0008A9A949A92982FE788E391E02150804088
:1009D0009040E1F700C000009498929A8A98809124
:1009E000DD028111FCCF1092E10208951092EA021B
:1009F0001092E9021092E8021092E5021092E402CD
:100A00001092E3021092E7021092E6021092E102C5
:100A10001092E0021092DF021092DE0281E08093D9
:100A2000DD028A988C98949A85B7826085BF8BB7CF
:100A300080648BBF0895CF93DF93EC011092DB02AB
:100A40006DEEAFDF8091DB028823E1F36881CE0198
:100A5000A8DFDF91CF9108959091E90281E0911193
:100A600001C080E008959C019091E902492F50E077
:100A7000FA013D97E237F10508F052C1D901ED5E68
:100A8000FF4F09949AE0C7C193E656C195E654C159
:100A900096E652C197E650C198E64EC199E64CC120
:100AA0009AE64AC19BE648C19CE646C19DE644C120
:100AB0009EE642C19FE640C190E73EC191E73CC13E
:100AC00092E73AC193E738C194E736C195E734C15C
:100AD00096E732C197E730C198E72EC199E72CC15C
:100AE0009AE72AC18091E50281113CC190E393C14C
:100AF0008091E502811138C191E38DC18091E502B9
:100B0000811134C192E387C18091E502811130C126
:100B100093E381C18091E50281112CC194E37BC1F3
:100B20008091E502811128C195E375C18091E502AC
:100B3000811124C170C18091E502811121C197E327
:100B40006AC18091E50281111DC198E364C1809161
:100B5000E502811119C199E35EC18091E50281111D
:100B600015C190E658C18091E502811111C19DE245
:100B700052C18091E50281110DC19DE34CC180916C
:100B8000E502811109C19CE546C18091E502811110
:100B900005C19BE540C18091E502811101C19DE540
:100BA0003AC18091E5028111FDC09BE334C180917F
:100BB000E5028111F9C097E22EC18091E502811111
:100BC000F5C09CE228C18091E5028111F1C09EE24E
:100BD00022C18091E5028111EDC09FE21CC190E825
:100BE0001AC199E818C18091E402882321F08C9100
:100BF00084608C9303C08C918B7F8C93CD011BDF21
:100C000090E009C18091E302882321F08C918260F9
:100C10008C9303C08C918D7F8C93CD010CDF90E081
:100C2000FAC08091E202882321F08C9181608C933C
:100C300003C08C918E7F8C93CD01FDDE90E0EBC0E4
:100C40009AE2E9C09DE2E7C09BE2E5C08091E7023D
:100C50008111B2C08091E3028111B0C090E0DBC08D
:100C60008091E7028111ACC08091E3028111AAC09A
:100C700090E0D1C08091E7028111A6C08091E3028B
:100C80008111A4C090E0C7C08091E7028111A0C08B
:100C90008091E30281119EC090E0BDC08091E70287
:100CA00081119AC08091E302811198C090E0B3C095
:100CB0008091E702811194C08091E302811192C07A
:100CC00090E0A9C08091E30281118EC090E0A3C0A2
:100CD0008091E70281118AC08091E302811188C06E
:100CE00090E099C08091E702811184C08091E30275
:100CF000811182C090E08FC08091E70281117EC097
:100D00008091E30281117CC090E085C08091E70270
:100D1000811178C08091E302811176C090E07BC0A0
:100D20002FEF84E39CE0215080409040E1F700C029
:100D3000000090E070C091E68091E502882329F0E0
:100D40008091E402882309F465C08091E502811155
:100D500062C08091E40281115DC05DC099E05BC01A
:100D600090E259C099E257C091E255C090E453C057
:100D700093E251C094E24FC095E24DC09EE54BC056
:100D800096E249C09AE247C098E245C09EE743C058
:100D90009FE541C09BE23FC09CE73DC09BE73BC055
:100DA0009DE739C09AE337C092E235C09CE333C077
:100DB0009EE331C09FE32FC094E82DC09EE22BC07C
:100DC00093E829C090E327C096E825C091E323C0AB
:100DD00092E821C092E31FC098E81DC093E31BC0B6
:100DE00093E819C094E317C095E315C094E813C0C5
:100DF00096E311C095E80FC097E30DC091E80BC0D2
:100E000098E309C097E807C099E305C092E694CF3C
:100E100094E692CF90521092E902892F08951F9282
:100E20000F920FB60F9211242F933F938F939F939E
:100E30008091E102882309F444C08091DF029091FF
:100E4000E00201969093E0028093DF028091DF023E
:100E50009091E0028A30910534F48230910564F477
:100E6000019741F0C9C08B309105E9F0A4F00C97CF
:100E7000E9F0C2C09498C0C08091DE0280FF02C039
:100E8000949A01C094988091DE0290E095958795A0
:100E90008093DE02B1C08091DC02882311F0949A25
:100EA000ABC09498A9C0949A8C98A6C0849903C0AA
:100EB0001092DD0203C081E08093DD021092E10216
:100EC0009BC090B38091E802882329F08091E802CA
:100ED0008B3008F47FC08091E8028F5F8093E80236
:100EE0008091E8028B3009F087C08091EA02873751
:100EF00009F440C048F4883509F44DC08935B9F08B
:100F0000823109F059C013C0803ED1F018F48E37F9
:100F100001F152C0803F19F08A3F29F04DC081E0B5
:100F20008093E60252C081E08093DB024EC0909134
:100F3000E60281E089278093E5021092E60245C02F
:100F40009091E70281E089278093E7021092E60200
:100F50003CC08091E602882319F01092E60235C069
:100F60009091E20281E089278093E2028EE78093EC
:100F7000E9022BC08091E602882319F01092E60264
:100F800024C09091E30281E089278093E30287E700
:100F90008093E9021AC08091E602882319F010922A
:100FA000E60213C09091E40281E089278093E40275
:100FB00088E58093E90209C09091E602992319F02F
:100FC0001092E60202C08093E9021092EA021092A7
:100FD000E80212C08091E80294FB222720F930E059
:100FE000815002C0220F331F8A95E2F78091EA02F6
:100FF000282B2093EA026FCF9F918F913F912F91E1
:101000000F900FBE0F901F901895EE0FFF1F0590C9
:0A101000F491E02D0994F894FFCF4D
:10101A0088008F0096009D00A500B000BA00C600A7
:10102A00B100D400DB004D792053797374656D00EB
:10103A00426567696E210A00312E50686174003278
:10104A002E56696E6800332E5475616E00312E4C2F
:10105A006967687400322E436F6E7472617374002C
:10106A0020202020204261636B00312E5461677377
:10107A00204C69737400322E416464204E657720D7
:10108A0054616700312E5246494400322E5365742A
:10109A0074696E67002000000000000000005F0015
:1010AA00000007000700147F147F14242A7F2A12E5
:1010BA0023130864623649552250000503000000D4
:1010CA001C2241000041221C0014083E0814080892
:1010DA003E08080050300000080808080800606050
:1010EA00000020100804023E5149453E00427F405C
:1010FA000042615149462141454B311814127F1073
:10110A0027454545393C4A494930017109050336A5
:10111A0049494936064949291E0036360000005613
:10112A003600000814224100141414141400412239
:10113A0014080201510906324979413E7E11111102
:10114A007E7F494949363E414141227F4141221C25
:10115A007F494949417F090909013E4149497A7F45
:10116A000808087F00417F41002040413F017F0875
:10117A001422417F404040407F020C027F7F0408D6
:10118A00107F3E4141413E7F090909063E415121F6
:10119A005E7F09192946464949493101017F010102
:1011AA003F4040403F1F2040201F3F4038403F63A0
:1011BA001408146307087008076151494543007F02
:1011CA0041410002040810200041417F000402014D
:1011DA00020440404040400001020400205454549C
:1011EA00787F484444383844444420384444487F4B
:1011FA003854545418087E0901020C5252523E7F48
:10120A000804047800447D40002040443D007F10DB
:10121A0028440000417F40007C041804787C0804BC
:10122A00047838444444387C1414140808141418F4
:10123A007C7C080404084854545420043F44402049
:10124A003C4040207C1C2040201C3C4030403C4418
:10125A00281028440C5050503C4464544C44000814
:10126A0036410000007F00000041360800100808DF
:08127A00100800000000000054
:00000001FF
