:1000000085C037C6A8C0A7C0A6C0A5C0A4C0A3C04D
:10001000A2C0A1C0A0C09FC09EC09DC09CC09BC0EC
:100020009AC099C098C0C8C5C4C4A4C5A3C5A2C578
:10003000A1C5A0C59FC56EC487C49CC59BC59AC5F4
:100040007BC46CC4A2C572C485C494C593C548C49E
:100050006FC4B0C547C48AC483C48CC58BC5AEC544
:1000600063C442C45DC458C487C484C583C54CC43A
:100070009FC53EC43BC45EC485C47CC57BC57AC5F0
:1000800041C43AC44FC483C488C474C573C5C1C4D1
:1000900035C430C43BC452C486C46CC56BC5BFC430
:1000A000C4C42EC4AAC434C48AC464C563C562C5AA
:1000B000AAC460C596C489C45DC55CC5BEC45AC522
:1000C0000DC495C457C587C455C554C553C552C53D
:1000D00051C550C54FC54EC5AEC44CC54BC5F4C483
:1000E00049C510C529C546C545C544C5E3C4D8C4DE
:1000F000F5C412C517C52AC53DC5AEC43BC5CEC49F
:10010000F7C4CAC4C7C42CC5B6C4F30011241FBEAB
:10011000CFE5D4E0DEBFCDBF12E0A0E6B0E0EEE672
:10012000FEE002C005900D92A838B107D9F722E091
:10013000A8E8B2E001C01D92AB3AB207E1F710E0C7
:10014000C6E8D0E003C02197FE0189D6C538D107A3
:10015000D1F71CD08AC654CF10BC83E389B980B5CF
:10016000866880BD539A08955D9BFECF8CB9089533
:10017000CF93DF93EC018881882329F02196F4DF67
:1001800089918111FCCFDF91CF910895E5DF84E65D
:1001900090E0EEDF88E892E055D3789489E892E029
:1001A00072D122E030E040E650E06CE670E089E891
:1001B00092E015D289E892E034D288E892E078D3D0
:1001C0008823D9F388E892E07AD3C82FCDDFC138ED
:1001D00021F489E892E0D7D2F0CFC23871F789E8EC
:1001E00092E0ADD2EACFEF92FF920F931F93E12CF2
:1001F000F12C01E010E022E030E043E050E064E068
:1002000070E089E892E008D088E892E0DED21F91A1
:100210000F91FF90EF900895EF92FF920F931F932D
:10022000CF93DF93FC0160837183428353832483E4
:10023000358306831783E086F186C4B381E090E0BE
:10024000DC0102C0AA0FBB1FEA94E2F77C0102C0E6
:10025000EE0CFF1C0A95E2F78701CA2B0C2BEC0170
:1002600002C0CC0FDD1F2A95E2F72C2F202BEC01CA
:1002700002C0CC0FDD1F4A95E2F7AE01422B9C0174
:1002800002C0220F331F6A95E2F7242B24BB25B34B
:10029000AC01028002C0440F551F0A94E2F70080AF
:1002A00002C0880F991F0A94E2F7842B822B85BB2A
:1002B00085B3A095A823A5BBDF91CF911F910F9186
:1002C000FF90EF900895CF93DF93FC0125B381E079
:1002D00090E0028002C0880F991F0A94E2F780958F
:1002E000822385BB6130710561F425B381E090E024
:1002F000048002C0880F991F0A94E2F7822B85BB05
:1003000052C025B381E090E0048002C0880F991F9D
:100310000A94E2F78095822385BB45C0CE01022E68
:1003200002C0959587950A94E2F780FF0BC045B30C
:10033000CD01068002C0880F991F0A94E2F7842B32
:1003400085BB0CC095B3AD01068002C0440F551F9C
:100350000A94E2F7842F8095892385BB85B3BD017C
:10036000008402C0660F771F0A94E2F7682B65BB12
:1003700055B3BD01008402C0660F771F0A94E2F7EF
:10038000962F9095952395BB2150310938F625B3CA
:1003900081E090E0028002C0880F991F0A94E2F782
:1003A000822B85BB07C027E030E0C42FD0E0A1E05E
:1003B000B0E0B4CFDF91CF910895462F60E070E0B8
:1003C00082DF0895462F61E070E07DDF08950F938E
:1003D0001F93CF93DF93EC01062F142F60E2EDDF24
:1003E000602F6068CE01E9DF612F6064CE01E5DF38
:1003F000DF91CF911F910F910895FC0195B321E0FA
:1004000030E0B901008002C0660F771F0A94E2F75E
:10041000A901028002C0440F551F0A94E2F7862FFB
:10042000842B892B85BB95B3A901008002C0440FA2
:10043000551F0A94E2F7842F8095892385BB83EDAD
:1004400090E30197F1F700C0000085B3008002C07F
:10045000220F331F0A94E2F7282B25BB08950F9330
:100460001F93CF93DF938C0140E060E0B0DFC8EFD3
:10047000D1E060E0C801A6DF2197D9F7DF91CF91E5
:100480001F910F910895CF93DF93EC01B6DF61E2E6
:10049000CE0193DF63E0CE0190DF65ECCE018DDF0E
:1004A00064E0CE018ADF60E2CE0187DF6CE0CE013E
:1004B00084DF60E8CE0181DF60E4CE017EDFCE0123
:1004C000CEDFDF91CF910895DF92EF92FF920F93ED
:1004D0001F93CF93DF938C0181E0672B09F480E0B9
:1004E000D82ED19450E0EA01CC0FDD1FCC0FDD1FD8
:1004F0004C0F5D1FEA01C95FDF4FE12CF12C6991C0
:100500006D25C8015FDF8FEFE81AF80A85E0E8166D
:10051000F104A9F76D2DC80155DFDF91CF911F912F
:100520000F91FF90EF90DF9008959F92AF92BF924E
:10053000CF92DF92EF92FF920F931F93CF93DF93AF
:100540007C016B0181E0672B09F480E0982E919487
:10055000FA018081882361F1319680E090E0019674
:1005600021912111FCCF8C010F9714F00EE010E0C7
:10057000101611068CF08EE090E09C01201B310BD0
:100580008901C901880F991F080F191F000F111F3A
:10059000101611067CF017C0EA015A01A00EB11E18
:1005A0004991B601C70190DFCA15DB05C9F7E3CF52
:1005B00004E510E0C0E0D0E0692DC70103DF21961B
:1005C0000C171D07C9F7DF91CF911F910F91FF9075
:1005D000EF90DF90CF90BF90AF909F900895DC0197
:1005E0001B961C921E921A971D961C921E921C9787
:1005F0001F963C932E931E9751967C936E93509723
:10060000121613066CF4FA015296220F331F420F92
:10061000531F819191918D939D93E417F507C9F72D
:100620000895DF92EF92FF920F931F93CF93DF9382
:10063000EC0140E060E0CBDE4889598960E070E081
:10064000CE0173DFEE84FF8485E0E816F104F4F553
:100650001E141F0434F5DD24D39400E010E005C01F
:1006600085E0E816F104ECF04EC04D2D60E0CE01BF
:10067000AEDEEC85FD85E00FF11F3996EE0FFF1F12
:10068000EC0FFD1F4081518160E070E0CE014DDF35
:100690000F5F1F4FEE84FF84D3940E151F052CF3BC
:1006A000DFCF11E01E0D412F60E0CE0190DE45EA64
:1006B00050E060E070E0CE0138DF8FEFE81AF80A12
:1006C0001F5F85E0E816F10474F31DC0FF24F39466
:1006D00000E010E04F2D60E0CE0179DEEC85FD8575
:1006E000E00FF11F3996EE0FFF1FEC0FFD1F408149
:1006F000518160E070E0CE0118DF0F5F1F4FF3946F
:1007000086E0F812E7CF4A854F5F8C85481B60E092
:10071000CE015DDEEA85FB853996EE0FFF1FEC0FFB
:10072000FD1F4081518161E070E0CE01FEDEDF916E
:10073000CF911F910F91FF90EF90DF900895FC01F2
:10074000228533852F5F3F4F468557852417350710
:1007500094F43387228764857585461B570B463092
:1007600051054CF0261B370B2530310521F46F5F06
:100770007F4F7587648755DF8FE493EC0197F1F71E
:1007800000C000000895FC0122853385121613066F
:10079000A4F4215031093387228746855785421BAF
:1007A000530B453051054CF04485558524173507CA
:1007B00024F4415051095587448733DF8FE493EC8B
:1007C0000197F1F700C000000895FC011082089520
:1007D00081E090E020E030E070E0AB01022E02C04A
:1007E000559547950A94E2F740FD01962F5F3F4FDC
:1007F0002830310591F78170089521E02093A102FE
:100800001092A00210929F0260939E0220939D027C
:10081000DFDF80939C028B9A8A9A939A92982FE7B3
:1008200088E391E0215080409040E1F700C0000053
:100830009398929A8A9880919D028111FCCF109290
:10084000A10208951092AA021092A9021092A80281
:100850001092A5021092A4021092A3021092A70275
:100860001092A6021092A1021092A00210929F0272
:1008700010929E0281E080939D028A988B98939AB1
:1008800085B7826085BF8BB780648BBF0895CF9397
:10089000DF93EC0110929B026DEEAFDF80919B0223
:1008A0008823E1F36881CE01A8DFDF91CF9108951D
:1008B0009091A90281E0911101C080E008959C010E
:1008C0009091A902492F50E0FA013D97E237F105D6
:1008D00008F050C1D901ED5EFF4F09949AE0C5C1FF
:1008E00093E654C195E652C196E650C197E64EC1D3
:1008F00098E64CC199E64AC19AE648C19BE646C1D2
:100900009CE644C19DE642C19EE640C19FE63EC1D1
:1009100090E73CC191E73AC192E738C193E736C10D
:1009200094E734C195E732C196E730C197E72EC10D
:1009300098E72CC199E72AC19AE728C18091A502BE
:1009400081113EC190E391C18091A50281113AC10C
:1009500091E38BC18091A502811136C192E385C1DB
:100960008091A502811132C193E37FC18091A502DC
:1009700081112EC194E379C18091A50281112AC110
:1009800095E373C18091A502811126C16EC180914A
:10099000A502811123C197E368C18091A50281114D
:1009A0001FC198E362C18091A50281111BC199E327
:1009B0005CC18091A502811117C190E656C180915A
:1009C000A502811113C19DE250C18091A502811140
:1009D0000FC19DE34AC18091A50281110BC19CE525
:1009E00044C18091A502811107C19BE53EC1809160
:1009F000A502811103C19DE538C18091A502811135
:100A0000FFC09BE332C18091A5028111FBC097E238
:100A10002CC18091A5028111F7C09CE226C1809172
:100A2000A5028111F3C09EE220C18091A50281112F
:100A3000EFC09FE21AC190E818C18091A4028823F8
:100A400021F08C9184608C9303C08C918B7F8C936C
:100A5000CD011DDF90E009C18091A302882321F020
:100A60008C9182608C9303C08C918D7F8C93CD018F
:100A70000EDF90E0FAC08091A202882321F08C91D1
:100A800081608C9303C08C918E7F8C93CD01FFDEAF
:100A900090E0EBC09AE2E9C09DE2E7C09BE2E5C0CE
:100AA0008091A7028111B6C08091A3028111B4C0C8
:100AB00090E0DBC08091A7028111B0C08091A302B9
:100AC0008111AEC090E0D1C08091A7028111AAC06F
:100AD0008091A3028111A8C090E0C7C08091A702B5
:100AE0008111A4C08091A3028111A2C090E0BDC079
:100AF0008091A70281119EC08091A30281119CC0A8
:100B000090E0B3C08091A702811198C08091A302A8
:100B1000811196C090E0A9C08091A302811192C07A
:100B200090E0A3C08091A70281118EC08091A302A2
:100B300081118CC090E099C08091A702811188C07A
:100B40008091A302811186C090E08FC08091A7029E
:100B5000811182C08091A302811180C090E085C084
:100B60008091A70281117CC08091A30281117AC07B
:100B700090E07BC02FEF84E39CE0215080409040C8
:100B8000E1F700C0000090E070C091E68091A502FE
:100B9000882329F08091A402882309F465C08091FC
:100BA000A502811162C08091A40281115DC05DC067
:100BB00092E6ECCF94E6EACF99E057C090E255C0B8
:100BC00099E253C091E251C090E44FC093E24DC00E
:100BD00094E24BC095E249C09EE547C096E245C00D
:100BE0009AE243C098E241C09EE73FC09FE53DC006
:100BF0009BE23BC09CE739C09BE737C09DE735C00F
:100C00009AE333C092E231C09CE32FC09EE32DC033
:100C10009FE32BC094E829C09EE227C093E825C03B
:100C200090E323C096E821C091E31FC092E81DC065
:100C300092E31BC098E819C093E317C093E815C06E
:100C400094E313C095E311C094E80FC096E30DC080
:100C500095E80BC097E309C091E807C098E305C089
:100C600097E803C099E301C090521092A902892F1E
:100C700008951F920F920FB60F9211242F933F9356
:100C80008F939F938091A102882309F444C080919F
:100C90009F029091A00201969093A00280939F02E0
:100CA00080919F029091A0028A30910534F48230A5
:100CB000910564F4019741F0C9C08B309105E9F0CA
:100CC000A4F00C97E9F0C2C09398C0C080919E0236
:100CD00080FF02C0939A01C0939880919E0290E099
:100CE0009595879580939E02B1C080919C02882340
:100CF00011F0939AABC09398A9C0939A8B98A6C011
:100D0000839903C010929D0203C081E080939D02ED
:100D10001092A1029BC090B38091A802882329F071
:100D20008091A8028B3008F47FC08091A8028F5F69
:100D30008093A8028091A8028B3009F087C080912F
:100D4000AA02873709F440C048F4883509F44DC039
:100D50008935B9F0823109F059C013C0803ED1F015
:100D600018F48E3701F152C0803F19F08A3F29F004
:100D70004DC081E08093A60252C081E080939B0227
:100D80004EC09091A60281E089278093A50210921F
:100D9000A60245C09091A70281E089278093A7020F
:100DA0001092A6023CC08091A602882319F01092EE
:100DB000A60235C09091A20281E089278093A20209
:100DC0008EE78093A9022BC08091A602882319F098
:100DD0001092A60224C09091A30281E089278093FB
:100DE000A30287E78093A9021AC08091A6028823F4
:100DF00019F01092A60213C09091A40281E08927F5
:100E00008093A40288E58093A90209C09091A6026C
:100E1000992319F01092A60202C08093A9021092A1
:100E2000AA021092A80212C08091A80293FB222766
:100E300020F930E0815002C0220F331F8A95E2F77B
:100E40008091AA02282B2093AA026FCF9F918F91A5
:100E50003F912F910F900FBE0F901F901895EE0F9E
:0E0E6000FF1F0590F491E02D0994F894FFCF48
:100E6E0094009B00426567696E210A004D792053FC
:100E7E00797374656D3A00312E4C69737400322E9D
:100E8E0041646400332E44656C65746500342E45F0
:100E9E0064697400312E5246494400322E536574F3
:100EAE0074696E67002000000000000000005F0003
:100EBE00000007000700147F147F14242A7F2A12D3
:100ECE0023130864623649552250000503000000C2
:100EDE001C2241000041221C0014083E0814080880
:100EEE003E0808005030000008080808080060603E
:100EFE00000020100804023E5149453E00427F404A
:100F0E000042615149462141454B311814127F1060
:100F1E0027454545393C4A49493001710905033693
:100F2E0049494936064949291E0036360000005601
:100F3E003600000814224100141414141400412227
:100F4E0014080201510906324979413E7E111111F0
:100F5E007E7F494949363E414141227F4141221C13
:100F6E007F494949417F090909013E4149497A7F33
:100F7E000808087F00417F41002040413F017F0863
:100F8E001422417F404040407F020C027F7F0408C4
:100F9E00107F3E4141413E7F090909063E415121E4
:100FAE005E7F09192946464949493101017F0101F0
:100FBE003F4040403F1F2040201F3F4038403F638E
:100FCE001408146307087008076151494543007FF0
:100FDE0041410002040810200041417F000402013B
:100FEE00020440404040400001020400205454548A
:100FFE00787F484444383844444420384444487F39
:10100E003854545418087E0901020C5252523E7F35
:10101E000804047800447D40002040443D007F10C9
:10102E0028440000417F40007C041804787C0804AA
:10103E00047838444444387C1414140808141418E2
:10104E007C7C080404084854545420043F44402037
:10105E003C4040207C1C2040201C3C4030403C4406
:10106E00281028440C5050503C4464544C44000802
:10107E0036410000007F00000041360800100808CD
:08108E00100800000000000042
:00000001FF
