S0180000526F6C6C2D43616C6C2053797374656D2E7372656325
S113000085C034C6A8C0A7C0A6C0A5C0A4C0A3C04C
S1130010A2C0A1C0A0C09FC09EC09DC09CC09BC0E8
S11300209AC099C098C0C5C5C1C4A1C5A0C59FC583
S11300309EC59DC59CC56BC484C499C598C597C508
S113004078C469C49FC56FC482C491C590C545C4B2
S11300506CC4ADC544C487C480C489C588C5ABC558
S113006060C43FC45AC455C484C481C580C549C44E
S11300709CC53BC438C45BC482C479C578C577C504
S11300803EC437C44CC480C485C471C570C5BEC4E5
S113009032C42DC438C44FC483C469C568C5BCC444
S11300A0C1C42BC4A7C431C487C461C560C55FC5BE
S11300B0A7C45DC593C486C45AC559C5BBC457C536
S11300C00AC492C454C584C452C551C550C54FC551
S11300D04EC54DC54CC54BC5ABC449C548C5F1C497
S11300E046C50DC526C543C542C541C5E0C4D5C4F2
S11300F0F2C40FC514C527C53AC5ABC438C5CBC4B3
S1130100F4C4C7C4C4C429C5B3C4180111241FBE90
S1130110CFE5D4E0DEBFCDBF12E0A0E6B0E0E8E674
S1130120FEE002C005900D92A437B107D9F722E092
S1130130A4E7B2E001C01D92A539B207E1F710E0CF
S1130140C6E8D0E003C02197FE0186D6C538D107A2
S1130150D1F71CD087C654CF10BC83E389B980B5CE
S1130160866880BD539A08955D9BFECF8CB908952F
S1130170CF93DF93EC018881882329F02196F4DF63
S113018089918111FCCFDF91CF910895CF93DF93B3
S113019000D000D000D0CDB7DEB7DEDF86E690E039
S11301A0E7DF84E792E04BD3789485E792E090D13F
S11301B086E0E0E6F0E0DE01119601900D928A956A
S11301C0E1F785E792E030D223E030E0AE014F5F03
S11301D05F4F6EE670E085E792E02CD284E792E010
S11301E064D38823D9F384E792E066D3182FBCDF65
S11301F0113871F485E792E0CCD223E030E0AE010F
S11302004F5F5F4F6EE670E085E792E013D2E6CF72
S1130210123821F785E792E0A0D223E030E0AE0166
S11302204F5F5F4F6EE670E085E792E003D2D6CF72
S1130230EF92FF920F931F93E12CF12C01E010E059
S113024022E030E043E050E064E070E085E792E0D3
S113025008D084E792E0B6D21F910F91FF90EF90FF
S11302600895EF92FF920F931F93CF93DF93FC01B6
S11302706083718342835383248335830683178386
S1130280E086F186C4B381E090E0DC0102C0AA0FED
S1130290BB1FEA94E2F77C0102C0EE0CFF1C0A9536
S11302A0E2F78701CA2B0C2BEC0102C0CC0FDD1F37
S11302B02A95E2F72C2F202BEC0102C0CC0FDD1F76
S11302C04A95E2F7AE01422B9C0102C0220F331F74
S11302D06A95E2F7242B24BB25B3AC01028002C04B
S11302E0440F551F0A94E2F7008002C0880F991F3B
S11302F00A94E2F7842B822B85BB85B3A095A823AF
S1130300A5BBDF91CF911F910F91FF90EF900895BE
S1130310CF93DF93FC0125B381E090E0028002C01B
S1130320880F991F0A94E2F78095822385BB613078
S1130330710561F425B381E090E0048002C0880F68
S1130340991F0A94E2F7822B85BB52C025B381E042
S113035090E0048002C0880F991F0A94E2F7809508
S1130360822385BB45C0CE01022E02C09595879598
S11303700A94E2F780FF0BC045B3CD01068002C0AA
S1130380880F991F0A94E2F7842B85BB0CC095B3A0
S1130390AD01068002C0440F551F0A94E2F7842F72
S11303A08095892385BB85B3BD01008402C0660F97
S11303B0771F0A94E2F7682B65BB55B3BD0100842F
S11303C002C0660F771F0A94E2F7962F9095952343
S11303D095BB2150310938F625B381E090E00280C5
S11303E002C0880F991F0A94E2F7822B85BB07C0CD
S11303F027E030E0C42FD0E0A1E0B0E0B4CFDF913B
S1130400CF910895462F60E070E082DF0895462F73
S113041061E070E07DDF08950F931F93CF93DF9326
S1130420EC01062F142F60E2EDDF602F6068CE012F
S1130430E9DF612F6064CE01E5DFDF91CF911F9189
S11304400F910895FC0195B321E030E0B9010080DB
S113045002C0660F771F0A94E2F7A901028002C066
S1130460440F551F0A94E2F7862F842B892B85BBF2
S113047095B3A901008002C0440F551F0A94E2F706
S1130480842F8095892385BB83ED90E30197F1F751
S113049000C0000085B3008002C0220F331F0A94FD
S11304A0E2F7282B25BB08950F931F93CF93DF9377
S11304B08C0140E060E0B0DFC8EFD1E060E0C8014B
S11304C0A6DF2197D9F7DF91CF911F910F9108955E
S11304D0CF93DF93EC01B6DF61E2CE0193DF63E0FB
S11304E0CE0190DF65ECCE018DDF64E0CE018ADFC2
S11304F060E2CE0187DF6CE0CE0184DF60E8CE01EC
S113050081DF60E4CE017EDFCE01CEDFDF91CF91CB
S11305100895DF92EF92FF920F931F93CF93DF938F
S11305208C0181E0672B09F480E0D82ED19450E04F
S1130530EA01CC0FDD1FCC0FDD1F4C0F5D1FEA015C
S1130540CD50D040E12CF12C69916D25C8015FDFBD
S11305508FEFE81AF80A85E0E816F104A9F76D2D83
S1130560C80155DFDF91CF911F910F91FF90EF905C
S1130570DF9008959F92AF92BF92CF92DF92EF9255
S1130580FF920F931F93CF93DF937C016B0181E064
S1130590672B09F480E0982E9194FA0180818823D6
S11305A061F1319680E090E0019621912111FCCF18
S11305B08C010F9714F00EE010E0101611068CF069
S11305C08EE090E09C01201B310B8901C901880F4A
S11305D0991F080F191F000F111F101611067CF028
S11305E017C0EA015A01A00EB11E4991B601C70114
S11305F090DFCA15DB05C9F7E3CF04E510E0C0E0DE
S1130600D0E0692DC70103DF21960C171D07C9F738
S1130610DF91CF911F910F91FF90EF90DF90CF90DA
S1130620BF90AF909F900895FC01138612861586A3
S113063014860895BF92CF92DF92EF92FF920F93A8
S11306401F93CF93DF93EC018B017A013F872E87B1
S113065040E060E0E1DEA80160E070E0CE018ADF06
S1130660CE84DF8485E0C816D104ECF51C141D0487
S11306702CF5BB24B39400E010E005C085E0C81657
S1130680D104E4F04CC04B2D60E0CE01C5DEEC8516
S1130690FD85E00FF11FEE0FFF1FEE0DFF1D4081E2
S11306A0518160E070E0CE0165DF0F5F1F4FCE84A3
S11306B0DF84B3940C151D0534F3E0CF11E01C0D59
S11306C0412F60E0CE01A8DE41E950E060E070E037
S11306D0CE0150DF8FEFC81AD80A1F5F85E0C81615
S11306E0D10474F31CC0DD24D39400E010E04D2D3C
S11306F060E0CE0191DEEC85FD85E00FF11FEE0F89
S1130700FF1FEE0DFF1D4081518160E070E0CE01BE
S113071031DF0F5F1F4FD39486E0D812E8CF4A85AC
S11307204F5F8C85481B60E0CE0176DE8A859B8511
S1130730880F991FF701E80FF91F4081518161E08B
S113074070E0CE0117DFDF91CF911F910F91FF90E1
S1130750EF90DF90CF90BF900895FC012285338500
S11307602F5F3F4F86859785281739078CF4338789
S1130770228744855585841B950B06974CF0241BD2
S1130780350B2530310521F44F5F5F4F5587448782
S11307900895FC01228533851216130694F4215022
S11307A031093387228786859785821B930B0597AA
S11307B044F084859585281739071CF4019795879B
S11307C084870895FC011082089581E090E020E080
S11307D030E070E0AB01022E02C0559547950A94B3
S11307E0E2F740FD01962F5F3F4F2830310591F726
S11307F08170089521E020938B0210928A02109256
S113080089026093880220938702DFDF8093860247
S11308108B9A8A9A939A92982FE788E391E02150D1
S113082080409040E1F700C000009398929A8A9823
S1130830809187028111FCCF10928B02089510924F
S11308409402109293021092920210928F021092CC
S11308508E0210928D0210929102109290021092C8
S11308608B0210928A02109289021092880281E00F
S1130870809387028A988B98939A85B7826085BF04
S11308808BB780648BBF0895CF93DF93EC011092F4
S113089085026DEEAFDF809185028823E1F36881E4
S11308A0CE01A8DFDF91CF9108959091930281E06A
S11308B0911101C080E008959C0190919302492F09
S11308C050E0FA013D97E237F10508F050C1D90133
S11308D0ED5EFF4F09949AE0C5C193E654C195E6D5
S11308E052C196E650C197E64EC198E64CC199E6CE
S11308F04AC19AE648C19BE646C19CE644C19DE6CE
S113090042C19EE640C19FE63EC190E73CC191E7EB
S11309103AC192E738C193E736C194E734C195E709
S113092032C196E730C197E72EC198E72CC199E709
S11309302AC19AE728C180918F0281113EC190E3B8
S113094091C180918F0281113AC191E38BC1809151
S11309508F02811136C192E385C180918F0281118A
S113096032C193E37FC180918F0281112EC194E340
S113097079C180918F0281112AC195E373C180915D
S11309808F02811126C16EC180918F02811123C112
S113099097E368C180918F0281111FC198E362C1FE
S11309A080918F0281111BC199E35CC180918F02F8
S11309B0811117C190E656C180918F02811113C134
S11309C09DE250C180918F0281110FC19DE34AC104
S11309D080918F0281110BC19CE544C180918F02EB
S11309E0811107C19BE53EC180918F02811103C132
S11309F09DE538C180918F028111FFC09BE332C114
S1130A0080918F028111FBC097E22CC180918F02EB
S1130A108111F7C09CE226C180918F028111F3C03D
S1130A209EE220C180918F028111EFC09FE21AC122
S1130A3090E818C180918E02882321F08C91846003
S1130A408C9303C08C918B7F8C93CD011DDF90E040
S1130A5009C180918D02882321F08C9182608C934E
S1130A6003C08C918D7F8C93CD010EDF90E0FAC092
S1130A7080918C02882321F08C9181608C9303C037
S1130A808C918E7F8C93CD01FFDE90E0EBC09AE2D7
S1130A90E9C09DE2E7C09BE2E5C08091910281112B
S1130AA0B6C080918D028111B4C090E0DBC080910A
S1130AB091028111B0C080918D028111AEC090E08D
S1130AC0D1C0809191028111AAC080918D028111BF
S1130AD0A8C090E0C7C0809191028111A4C0809108
S1130AE08D028111A2C090E0BDC08091910281115C
S1130AF09EC080918D0281119CC090E0B3C0809112
S1130B009102811198C080918D02811196C090E06C
S1130B10A9C080918D02811192C090E0A3C0809100
S1130B20910281118EC080918D0281118CC090E060
S1130B3099C080919102811188C080918D028111A8
S1130B4086C090E08FC080919102811182C0809113
S1130B508D02811180C090E085C080919102811145
S1130B607CC080918D0281117AC090E07BC02FEF10
S1130B7084E39CE0215080409040E1F700C00000F5
S1130B8090E070C091E680918F02882329F08091D3
S1130B908E02882309F465C080918F02811162C09E
S1130BA080918E0281115DC05DC092E6ECCF94E627
S1130BB0EACF99E057C090E255C099E253C091E260
S1130BC051C090E44FC093E24DC094E24BC095E213
S1130BD049C09EE547C096E245C09AE243C098E208
S1130BE041C09EE73FC09FE53DC09BE23BC09CE700
S1130BF039C09BE737C09DE735C09AE333C092E222
S1130C0031C09CE32FC09EE32DC09FE32BC094E82A
S1130C1029C09EE227C093E825C090E323C096E84C
S1130C2021C091E31FC092E81DC092E31BC098E865
S1130C3019C093E317C093E815C094E313C095E378
S1130C4011C094E80FC096E30DC095E80BC097E37C
S1130C5009C091E807C098E305C097E803C099E389
S1130C6001C0905210929302892F08951F920F92FF
S1130C700FB60F9211242F933F938F939F938091DC
S1130C808B02882309F444C08091890290918A02DE
S1130C90019690938A0280938902809189029091AF
S1130CA08A028A30910534F48230910564F4019704
S1130CB041F0C9C08B309105E9F0A4F00C97E9F03C
S1130CC0C2C09398C0C08091880280FF02C0939AEA
S1130CD001C093988091880290E0959587958093C0
S1130CE08802B1C080918602882311F0939AABC028
S1130CF09398A9C0939A8B98A6C0839903C0109225
S1130D00870203C081E08093870210928B029BC00C
S1130D1090B380919202882329F0809192028B30C3
S1130D2008F47FC0809192028F5F80939202809139
S1130D3092028B3009F087C080919402873709F4BE
S1130D4040C048F4883509F44DC08935B9F0823182
S1130D5009F059C013C0803ED1F018F48E3701F168
S1130D6052C0803F19F08A3F29F04DC081E0809342
S1130D70900252C081E0809385024EC0909190020F
S1130D8081E0892780938F021092900245C0909150
S1130D90910281E0892780939102109290023CC0D5
S1130DA080919002882319F01092900235C090919E
S1130DB08C0281E0892780938C028EE780939302D2
S1130DC02BC080919002882319F01092900224C0C5
S1130DD090918D0281E0892780938D0287E780932B
S1130DE093021AC080919002882319F01092900205
S1130DF013C090918E0281E0892780938E0288E54A
S1130E008093930209C090919002992319F0109253
S1130E10900202C080939302109294021092920264
S1130E2012C08091920293FB222720F930E0815076
S1130E3002C0220F331F8A95E2F780919402282B77
S1130E40209394026FCF9F918F913F912F910F9098
S1130E500FBE0F901F901895EE0FFF1F0590F49191
S10B0E60E02D0994F894FFCF82
S1130E6878007F008900426567696E210A004D7920
S1130E782073797374656D00312E524649440032EB
S1130E882E53657474696E6700332E41626F7574EE
S1130E98002000000000000000005F0000000700C0
S1130EA80700147F147F14242A7F2A12231308644A
S1130EB86236495522500005030000001C224100F7
S1130EC80041221C0014083E081408083E080800C3
S1130ED8503000000808080808006060000020106E
S1130EE80804023E5149453E00427F400042615198
S1130EF849462141454B311814127F102745454571
S1130F08393C4A494930017109050336494949368A
S1130F18064949291E0036360000005636000008E6
S1130F281422410014141414140041221408020158
S1130F38510906324979413E7E1111117E7F494992
S1130F4849363E414141227F4141221C7F4949495A
S1130F58417F090909013E4149497A7F0808087F08
S1130F6800417F41002040413F017F081422417F16
S1130F78404040407F020C027F7F0408107F3E41BE
S1130F8841413E7F090909063E4151215E7F091905
S1130F982946464949493101017F01013F40404002
S1130FA83F1F2040201F3F4038403F63140814630C
S1130FB807087008076151494543007F4141000211
S1130FC8040810200041417F00040201020440404B
S1130FD8404040000102040020545454787F48449F
S1130FE844383844444420384444487F385454549A
S1130FF818087E0901020C5252523E7F08040478F4
S113100800447D40002040443D007F1028440000F7
S1131018417F40007C041804787C08040478384430
S11310284444387C14141408081414187C7C0804E8
S113103804084854545420043F4440203C40402071
S11310487C1C2040201C3C4030403C442810284450
S11310580C5050503C4464544C4400083641000041
S1131068007F00000041360800100808100800003E
S10710780000000070
S9030000FC
