:1000000013C037C036C035C034C033C032C031C071
:1000100030C02FC02EC02DC02CC02BC02AC029C07C
:1000200028C027C026C0620011241FBECFE5D4E03F
:10003000DEBFCDBF12E0A0E6B0E0EEEBF2E002C022
:1000400005900D92A635B107D9F722E0A6E5B2E0FA
:1000500001C01D92A935B207E1F710E0C4E1D0E07C
:1000600003C02197FE0123D1C331D107D1F702D0BC
:1000700024C1C6CFA59AAD9A86E592E085D060E608
:1000800070E086E592E0C7D041E060E086E592E06E
:1000900044D065E670E086E592E0BDD043E060E0E4
:1000A00086E592E03AD06EE670E086E592E0B3D065
:1000B0002FEF8DE399E4215080409040E1F700C09C
:1000C0000000DDCF86E592E03AD00895C298672B14
:1000D00011F0C69A14C0C69812C09A01082E02C028
:1000E000359527950A94E2F720FF02C0C39A01C014
:1000F000C398C59AC598019780F7C29A089587E07A
:1001000090E050E0EACF462F60E070E0DFDF089536
:10011000462F61E070E0DADF0895CF93DF93EC01C2
:100120006883498360E2EFDF68816068CE01EBDFBE
:1001300069816064CE01E7DFDF91CF910895FC0112
:1001400010821182128287B38E6687BB88B3866065
:1001500088BB089588B3866088BBC198C19A08950A
:100160000F931F93CF93DF938C0140E060E0D5DFC6
:10017000C8EFD1E060E0C801CBDF2197D9F7DF916C
:10018000CF911F910F910895CF93DF93EC01E2DFA0
:1001900061E2CE01B8DF65E8CE01B5DF64E0CE01F3
:1001A000B2DF64E1CE01AFDF60E2CE01ACDF60E838
:1001B000CE01A9DF60E4CE01A6DF6CE0CE01A3DFB3
:1001C000CE01CEDFDF91CF910895EF92FF920F9392
:1001D0001F93CF93DF937C0170E0EB01CC0FDD1F09
:1001E000CC0FDD1F6C0F7D1FEB01CA52D04000E029
:1001F00010E06991C7018CDF0F5F1F4F05301105BB
:10020000C1F760E0C70184DFDF91CF911F910F91AB
:10021000FF90EF900895CF92DF92EF92FF920F93AD
:100220001F93CF93DF937C01FB018081811105C077
:100230002AC010161106E4F00AC0FB01319600E056
:1002400010E00F5F1F4F81918111FBCFF2CF8EE045
:1002500090E09C01201B310B8901C901880F991F77
:10026000080F191F000F111F1016110674F016C089
:10027000EB016B01C00ED11E6991C701A6DFCC1640
:10028000DD06D1F7E4CF04E510E0C0E0D0E060E0A7
:10029000C7013EDF21960C171D07C9F7DF91CF91EB
:1002A0001F910F91FF90EF90DF90CF900895EE0F88
:0E02B000FF1F0590F491E02D0994F894FFCF04
:1002BE00504841540056494E48204E475500426F13
:1002CE00204C696E6800000000000000005F000016
:1002DE000007000700147F147F14242A7F2A12239C
:1002EE001308646236495522500005030000001CB5
:1002FE002241000041221C0014083E081408083E4A
:10030E000808005030000008080808080060600067
:10031E000020100804023E5149453E00427F400035
:10032E0042615149462141454B311814127F102725
:10033E00454545393C4A494930017109050336495D
:10034E00494936064949291E003636000000563600
:10035E000000081422410014141414140041221435
:10036E00080201510906324979413E7E1111117E72
:10037E007F494949363E414141227F4141221C7FFE
:10038E00494949417F090909013E4149497A7F0896
:10039E0008087F00417F41002040413F017F081443
:1003AE0022417F404040407F020C027F7F040810B4
:1003BE007F3E4141413E7F090909063E4151215E82
:1003CE007F09192946464949493101017F01013FFB
:1003DE004040403F1F2040201F3F4038403F6314A5
:1003EE0008146307087008076151494543007F41AF
:1003FE00410002040810200041417F000402010266
:10040E0004404040404000010204002054545478FF
:10041E007F484444383844444420384444487F3864
:10042E0054545418087E0901020C5252523E7F0851
:10043E0004047800447D40002040443D007F102895
:10044E00440000417F40007C041804787C080404BA
:10045E007838444444387C14141408081414187C56
:10046E007C080404084854545420043F4440203C63
:10047E004040207C1C2040201C3C4030403C442806
:10048E001028440C5050503C4464544C44000836E0
:10049E00410000007F0000004136080010080810DF
:0604AE0008000000000040
:00000001FF
