:1000000013C037C036C035C034C033C032C031C071
:1000100030C02FC02EC02DC02CC02BC02AC029C07C
:1000200028C027C026C0540011241FBECFE5D4E04D
:10003000DEBFCDBF12E0A0E6B0E0EEE6F1E002C028
:1000400005900D92A835B107D9F722E0A8E5B2E0F6
:1000500001C01D92AB35B207E1F710E0C4E1D0E07A
:1000600003C02197FE017BD0C331D107D1F702D065
:100070007CC0C6CFA59AAD9A88E592E051D008E53C
:1000800012E0C0E6D0E0699188E592E033D0C01775
:10009000D107C9F72FEF8DE399E4215080409040BC
:1000A000E1F700C00000EDCF88E592E028D0089588
:1000B000C298672B11F0C09A14C0C09812C09A0160
:1000C000082E02C0359527950A94E2F720FF02C05A
:1000D000C39A01C0C398C59AC598019780F7C29A80
:1000E000089587E090E050E0EACF462F60E070E0AE
:1000F000DFDF0895462F61E070E0DADF0895FC014C
:1001000010821182128287B38F6287BB88B38660A8
:1001100088BB089588B3866088BBC198C19A08954A
:10012000CF93DF93EC01F6DF61E2CE01DEDF60E921
:10013000CE01DBDF64E0CE01D8DF64E1CE01D5DFA4
:1001400060E2CE01D2DF60E8CE01CFDF60E4CE0115
:10015000CCDF6CE0CE01C9DFDF91CF910895EE0FC7
:0E016000FF1F0590F491E02D0994F894FFCF55
:10016E000000000000000000000000000000000081
:10017E000000000000000000000000000000000071
:10018E000000008080C0C0E0E0E0A0E0C060404021
:10019E0000808080C0C0C0C0E0E0F0E0C000000081
:1001AE000000000000000000000000000000000041
:1001BE000000000000000000000000000000000031
:1001CE000000000000000000000000000000000021
:1001DE000000A0F8BC7EBF9FC7EF77353B1D0D0C0E
:1001EE000606030303010101020418E001030303E1
:1001FE00010103FE300000000000000000000000BE
:10020E0000000000000000000000000000000000E0
:10021E0000000000000000000000000000000000D0
:10022E0000000080C0F5FA3D1ECFE7C18178DEFFE9
:10023E00BFFF7C7EFFB7FFDED840C0C0C00000000D
:10024E007F00000000100C01000000000000000004
:10025E000000000000000000000000000000000090
:10026E000000000000000000000000000000000080
:10027E000000000040FCFEFFFF030008303971F75C
:10028E00ECCFDFFDF1E080C0E0F1FDDFCDEDF573E9
:10029E0039100C03000000000000000000000000F8
:1002AE000000000000000000000000000000000040
:1002BE000000000000000000000000000000000030
:1002CE00000000000000000001070F1F1F3F3E3C12
:1002DE003C3838383839191B1B0B0B0F0707030333
:1002EE0001010000000000000000000000000000FE
:1002FE0000000000000000000000000000000000F0
:10030E0000000000000000000000000000000000DF
:10031E0000000000000000000000000000000000CF
:10032E0000000000000000000000187C706C7C00D3
:10033E007C7C045C7C2C04000000000000000000AB
:10034E00000000000000000000000000000000009F
:08035E00000000000000000097
:00000001FF
