S01100004E6F6B6961353131302E737265635A
S113000013C037C036C035C034C033C032C031C06D
S113001030C02FC02EC02DC02CC02BC02AC029C078
S113002028C027C026C05E0011241FBECFE5D4E03F
S1130030DEBFCDBF12E0A0E6B0E0E8E1F7E002C029
S113004005900D92A038B107D9F722E0A0E8B2E0FC
S113005001C01D92AE39B207E1F710E0C4E1D0E06F
S113006003C02197FE0150D3C331D107D1F702D089
S113007051C3C6CF81B38C7F81BB82B3836082BB03
S113008080E892E06BD124E030E040E650E068E99B
S113009070E080E892E00ED280E892E053D280993A
S11300A005C080E892E0F6D2809BFECF8199F4CF20
S11300B080E892E00DD3819BFECFEECFEF92FF92CA
S11300C00F931F93E12CF12C01E010E022E030E0CB
S11300D043E050E064E070E080E892E005D01F91D6
S11300E00F91FF90EF900895EF92FF920F931F935B
S11300F0CF93DF93FC016083718342835383248312
S1130100358306831783E086F186C4B381E090E0EB
S1130110DC0102C0AA0FBB1FEA94E2F77C0102C013
S1130120EE0CFF1C0A95E2F78701CA2B0C2BEC019D
S113013002C0CC0FDD1F2A95E2F72C2F202BEC01F7
S113014002C0CC0FDD1F4A95E2F7AE01422B9C01A1
S113015002C0220F331F6A95E2F7242B24BB25B378
S1130160AC01028002C0440F551F0A94E2F70080DC
S113017002C0880F991F0A94E2F7842B822B85BB57
S113018085B3A095A823A5BBDF91CF911F910F91B3
S1130190FF90EF900895CF93DF93FC0125B381E0A6
S11301A090E0028002C0880F991F0A94E2F78095BC
S11301B0822385BB6130710561F425B381E090E051
S11301C0048002C0880F991F0A94E2F7822B85BB32
S11301D052C025B381E090E0048002C0880F991FCB
S11301E00A94E2F78095822385BB45C0CE01022E96
S11301F002C0959587950A94E2F780FF0BC045B33A
S1130200CD01068002C0880F991F0A94E2F7842B5F
S113021085BB0CC095B3AD01068002C0440F551FC9
S11302200A94E2F7842F8095892385BB85B3BD01A9
S1130230008402C0660F771F0A94E2F7682B65BB3F
S113024055B3BD01008402C0660F771F0A94E2F71C
S1130250962F9095952395BB2150310938F625B3F7
S113026081E090E0028002C0880F991F0A94E2F7AF
S1130270822B85BB07C027E030E0C42FD0E0A1E08B
S1130280B0E0B4CFDF91CF910895462F60E070E0E5
S113029082DF0895462F61E070E07DDF08950F93BB
S11302A01F93CF93DF93EC01062F142F60E2EDDF51
S11302B0602F6068CE01E9DF612F6064CE01E5DF65
S11302C0DF91CF911F910F910895FC0195B321E027
S11302D030E0B901008002C0660F771F0A94E2F78C
S11302E0A901028002C0440F551F0A94E2F7862F29
S11302F0842B892B85BB95B3A901008002C0440FD0
S1130300551F0A94E2F7842F8095892385BB4FE714
S113031088E391E0415080409040E1F700C0000044
S113032085B3008002C0220F331F0A94E2F7282B02
S113033025BB08950F931F93CF93DF938C0140E067
S113034060E0ADDFC8EFD1E060E0C801A3DF219732
S1130350D9F7DF91CF911F910F910895CF93DF9338
S1130360EC01B3DF61E2CE0190DF63E0CE018DDF0B
S113037065ECCE018ADF64E0CE0187DF60E2CE0166
S113038084DF6CE0CE0181DF60E8CE017EDF60E4D3
S1130390CE017BDFCE01CEDFDF91CF910895DF92D6
S11303A0EF92FF920F931F93CF93DF938C0181E021
S11303B0672B09F480E0D82ED19450E0EA01CC0FE9
S11303C0DD1FCC0FDD1F4C0F5D1FEA01C150D04073
S11303D0E12CF12C69916D25C8015CDF8FEFE81ADF
S11303E0F80A85E0E816F104A9F76D2DC80152DF7B
S11303F0DF91CF911F910F91FF90EF90DF900895BF
S11304009F92AF92BF92CF92DF92EF92FF920F939F
S11304101F93CF93DF937C016B0181E0672B09F479
S113042080E0982E9194FA018081882361F13196BD
S113043080E090E0019621912111FCCF8C010F976F
S113044014F00EE010E0101611068CF08EE090E02F
S11304509C01201B310B8901C901880F991F080FCA
S1130460191F000F111F101611067CF017C0EA01A6
S11304705A01A00EB11E4991B601C70190DFCA15F9
S1130480DB05C9F7E3CF04E510E0C0E0D0E0692D57
S1130490C70100DF21960C171D07C9F7DF91CF9123
S11304A01F910F91FF90EF90DF90CF90BF90AF908E
S11304B09F900895CF93DF93EC011B861A861D86C7
S11304C01C863F872E87A62FB72FFC017096BC0190
S11304D0625E7F4F90E204C01216130664F02FC0D0
S11304E08D91882311F0808301C0908331966E171B
S11304F07F07B1F7F1CFFA01220F331FC901880F2B
S1130500991F880F991F880F991F821B930BEA016B
S1130510C80FD91F50E29F01225F3F4FDB01919129
S1130520992311F09C9301C05C931196E217F30791
S1130530B1F7625F7F4FF901C217D30761F7DF910B
S1130540CF910895CF92DF92FF920F931F93CF9391
S1130550DF93EC0140E060E0A2DEAE01405F5F4F5C
S113056060E070E0CE014CDFCE84DF8485E0C81605
S1130570D1040CF046C01C141D0474F5FF24F3943C
S113058000E010E005C085E0C816D1042CF15EC07F
S11305904F2D60E0CE0183DE8C859D85800F911FF9
S11305A0880F991FAC01440F551F440F551F440F6A
S11305B0551F481B590B425E5F4F4C0F5D1F60E097
S11305C070E0CE011DDF0F5F1F4FCE84DF84F394F4
S11305D00C151D05ECF2D7CF11E01C0D412F60E086
S11305E0CE015DDE4DE950E060E070E0CE0108DF51
S11305F08FEFC81AD80A1F5F85E0C816D10474F3B8
S113060025C0FF24F39400E010E04F2D60E0CE01FC
S113061046DE8C859D85800F911F880F991FAC0144
S1130620440F551F440F551F440F551F481B590BAA
S1130630425E5F4F4C0F5D1F60E070E0CE01E0DE74
S11306400F5F1F4FF39486E0F812DFCF4A854F5FA8
S11306508C85481B60E0CE0122DE8A859B85880F4D
S1130660991FAC01440F551F440F551F440F551FCC
S1130670481B590B425E5F4F4C0F5D1F61E070E0F9
S1130680CE01BEDEDF91CF911F910F91FF90DF90DD
S1130690CF900895FC01228533852F5F3F4F468517
S11306A057852417350794F4338722876485758525
S11306B0461B570B463051054CF0261B370B253093
S11306C0310521F46F5F7F4F758764873BDF0895A1
S11306D0FC012285338512161306A4F42150310936
S11306E03387228746855785421B530B4530510576
S11306F04CF0448555852417350724F4415051099D
S1130700558744871FDF0895EE0FFF1F0590F4916E
S10B0710E02D0994F894FFCFD9
S1130718312E506861740000000000000000322E81
S113072856696E680000000000000000332E4C6912
S11307386E680000000000000000342E5475616EDD
S11307480000000000000000524649440020000058
S11307580000000000005F00000007000700147F8D
S1130768147F14242A7F2A122313086462364955F5
S113077822500005030000001C2241000041221CF5
S11307880014083E081408083E0808005030000009
S11307980808080808006060000020100804023EE9
S11307A85149453E00427F4000426151494621413A
S11307B8454B311814127F1027454545393C4A49A1
S11307C84930017109050336494949360649492919
S11307D81E00363600000056360000081422410078
S11307E81414141414004122140802015109063285
S11307F84979413E7E1111117E7F494949363E416E
S11308084141227F4141221C7F494949417F0909CD
S113081809013E4149497A7F0808087F00417F4120
S1130828002040413F017F081422417F404040405E
S11308387F020C027F7F0408107F3E4141413E7FC6
S1130848090909063E4151215E7F0919294646498D
S113085849493101017F01013F4040403F1F204089
S1130868201F3F4038403F6314081463070870088A
S1130878076151494543007F4141000204081020A3
S11308880041417F0004020102044040404040000E
S11308980102040020545454787F484444383844AE
S11308A8444420384444487F3854545418087E0932
S11308B801020C5252523E7F0804047800447D40E1
S11308C8002040443D007F1028440000417F400040
S11308D87C041804787C0804047838444444387C3C
S11308E814141408081414187C7C080404084854C4
S11308F8545420043F4440203C4040207C1C204069
S1130908201C3C4030403C44281028440C50505093
S11309183C4464544C44000836410000007F000005
S11309280041360800100808100800000000000004
S9030000FC
