:1000000013C037C036C035C034C033C032C031C071
:1000100030C02FC02EC02DC02CC02BC02AC029C07C
:1000200028C027C026C0080111241FBECFE5D4E098
:10003000DEBFCDBF12E0A0E6B0E0E6E0F8E002C02F
:1000400005900D92A83BB107D9F722E0A8EBB2E0EA
:1000500001C01D92AA3CB207E1F710E0C4E1D0E074
:1000600003C02197FE01C7D3C331D107D1F788D090
:10007000C8C3C6CFEF92FF920F931F9388EB92E015
:10008000B6D320E0863C920791F40F2EF0E7EF2ED6
:10009000F0E0FF2EF02D04E710E022E030E040E039
:1000A00050E060E070E088EB92E0AED214C08D5C6E
:1000B000904089F40F2EF0E7EF2EF0E0FF2EF02DA8
:1000C00004E710E022E030E040E050E061E070E062
:1000D00088EB92E099D21F910F91FF90EF900895D5
:1000E000EF92FF920F931F9388EB92E080D320E072
:1000F0008437920761F588EB92E075D3009719F089
:10010000019799F038C00F2EF6E6EF2EF0E0FF2EA3
:10011000F02D06EC10E025E030E040E050E060E03B
:1001200070E088EB92E070D226C00F2EF0E6EF2E42
:10013000F0E0FF2EF02D0DEC10E023E030E040E089
:1001400050E060E070E088EB92E05ED214C020E006
:10015000863C920739F488EB92E045D3049759F432
:1001600089DF09C08D5C904031F488EB92E03BD38D
:10017000029709F47FDF1F910F91FF90EF90089590
:1001800081B38C7F81BB82B3836082BB88EB92E0BA
:100190008FD10F2EF0E7EF2EF0E0FF2EF02D04E7C9
:1001A00010E022E030E040E050E060E070E088EBFA
:1001B00092E02AD288EB92E051D22FEF84E39CE0C8
:1001C000215080409040E1F700C00000809B1DC09E
:1001D000819B1BC0829B19C08399F8CF16C088EB06
:1001E00092E0CCD2809BFECF819905C088EB92E053
:1001F000E1D2819BFECF829903C072DF829BFECF4A
:100200008399D8CF839BFECFD5CF8099EDCFE7CF11
:10021000EF92FF920F931F93E12CF12C01E010E07D
:1002200022E030E043E050E064E070E088EB92E0F0
:1002300005D01F910F91FF90EF900895EF92FF92DC
:100240000F931F93CF93DF93FC01608371834283ED
:1002500053832483358306831783E086F186C4B3F2
:1002600081E090E0DC0102C0AA0FBB1FEA94E2F734
:100270007C0102C0EE0CFF1C0A95E2F78701CA2B35
:100280000C2BEC0102C0CC0FDD1F2A95E2F72C2FBE
:10029000202BEC0102C0CC0FDD1F4A95E2F7AE0126
:1002A000422B9C0102C0220F331F6A95E2F7242BD8
:1002B00024BB25B3AC01028002C0440F551F0A9431
:1002C000E2F7008002C0880F991F0A94E2F7842B9E
:1002D000822B85BB85B3A095A823A5BBDF91CF91C9
:1002E0001F910F91FF90EF900895CF93DF93FC0142
:1002F00025B381E090E0028002C0880F991F0A9424
:10030000E2F78095822385BB6130710561F425B3E6
:1003100081E090E0048002C0880F991F0A94E2F700
:10032000822B85BB52C025B381E090E0048002C0DF
:10033000880F991F0A94E2F78095822385BB45C0F8
:10034000CE01022E02C0959587950A94E2F780FFB0
:100350000BC045B3CD01068002C0880F991F0A94D7
:10036000E2F7842B85BB0CC095B3AD01068002C0BB
:10037000440F551F0A94E2F7842F8095892385BB8B
:1003800085B3BD01008402C0660F771F0A94E2F7AF
:10039000682B65BB55B3BD01008402C0660F771F93
:1003A0000A94E2F7962F9095952395BB2150310939
:1003B00038F625B381E090E0028002C0880F991FD3
:1003C0000A94E2F7822B85BB07C027E030E0C42FF8
:1003D000D0E0A1E0B0E0B4CFDF91CF910895462FF7
:1003E00060E070E082DF0895462F61E070E07DDF1D
:1003F00008950F931F93CF93DF93EC01062F142FD3
:1004000060E2EDDF602F6068CE01E9DF612F60649C
:10041000CE01E5DFDF91CF911F910F910895FC018F
:1004200095B321E030E0B901008002C0660F771F6C
:100430000A94E2F7A901028002C0440F551F0A94F2
:10044000E2F7862F842B892B85BB95B3A901008009
:1004500002C0440F551F0A94E2F7842F8095892328
:1004600085BB4FE788E391E0415080409040E1F741
:1004700000C0000085B3008002C0220F331F0A9421
:10048000E2F7282B25BB08950F931F93CF93DF939B
:100490008C0140E060E0ADDFC8EFD1E060E0C80172
:1004A000A3DF2197D9F7DF91CF911F910F91089585
:1004B000CF93DF93EC01B3DF61E2CE0190DF63E025
:1004C000CE018DDF65ECCE018ADF64E0CE0187DFEF
:1004D00060E2CE0184DF6CE0CE0181DF60E8CE0116
:1004E0007EDF60E4CE017BDFCE01CEDFDF91CF91F6
:1004F0000895DF92EF92FF920F931F93CF93DF93B4
:100500008C0181E0672B09F480E0D82ED19450E073
:10051000EA01CC0FDD1FCC0FDD1F4C0F5D1FEA0180
:10052000C95CDF4FE12CF12C69916D25C8015CDFBE
:100530008FEFE81AF80A85E0E816F104A9F76D2DA7
:10054000C80152DFDF91CF911F910F91FF90EF9083
:10055000DF9008959F92AF92BF92CF92DF92EF9279
:10056000FF920F931F93CF93DF937C016B0181E088
:10057000672B09F480E0982E9194FA0180818823FA
:1005800061F1319680E090E0019621912111FCCF3C
:100590008C010F9714F00EE010E0101611068CF08D
:1005A0008EE090E09C01201B310B8901C901880F6E
:1005B000991F080F191F000F111F101611067CF04C
:1005C00017C0EA015A01A00EB11E4991B601C70138
:1005D00090DFCA15DB05C9F7E3CF04E510E0C0E002
:1005E000D0E0692DC70100DF21960C171D07C9F760
:1005F000DF91CF911F910F91FF90EF90DF90CF90FF
:10060000BF90AF909F900895EF92FF920F931F932A
:10061000DC011B967C936E931A971D965C934E9308
:100620001C971F963C932E931E9751961C930E93E6
:100630005097121613066CF4F7015296220F331FCF
:10064000E20EF31E819191918D939D93EE15FF051E
:10065000C9F71F910F91FF90EF900895DF92EF92ED
:10066000FF920F931F93CF93DF93EC010DDF40E0D8
:1006700060E0CE01BEDE4889598960E070E0CE01BD
:1006800069DFEE84FF8485E0E816F104F4F51E14BA
:100690001F0434F5DD24D39400E010E005C085E0AC
:1006A000E816F104ECF04EC04D2D60E0CE01A1DE65
:1006B000EC85FD85E00FF11F3996EE0FFF1FEC0F63
:1006C000FD1F4081518160E070E0CE0143DF0F5F8C
:1006D0001F4FEE84FF84D3940E151F052CF3DFCF3C
:1006E00011E01E0D412F60E0CE0183DE45ED50E0AC
:1006F00060E070E0CE012EDF8FEFE81AF80A1F5F8E
:1007000085E0E816F10474F31DC0FF24F39400E0C3
:1007100010E04F2D60E0CE016CDEEC85FD85E00F32
:10072000F11F3996EE0FFF1FEC0FFD1F4081518125
:1007300060E070E0CE010EDF0F5F1F4FF39486E0A4
:10074000F812E7CF4A854F5F8C85481B60E0CE01E9
:1007500050DEEA85FB853996EE0FFF1FEC0FFD1F7B
:100760004081518161E070E0CE01F4DEDF91CF91F4
:100770001F910F91FF90EF90DF900895FC0122856B
:1007800033852F5F3F4F86859785281739078CF46F
:100790003387228744855585841B950B06974CF03B
:1007A000241B350B2530310521F44F5F5F4F5587F2
:1007B00044870895FC01228533851216130694F4AC
:1007C000215031093387228786859785821B930BB9
:1007D000059744F084859585281739071CF40197FF
:1007E000958784870895FC01828593850895FC018F
:1007F000808991890895EE0FFF1F0590F491E02DF7
:060800000994F894FFCFFB
:100806007E00860091009A00A100AB00B80091001E
:10081600C400CB004D792053797374656D00312E79
:100826004C6967687400322E436F6E74726173741C
:1008360000202020204261636B00312E4C697374C6
:1008460000322E4164642054616700332E52656D78
:100856006F76652054616700342E456469742049BB
:100866006E666F00312E5246494400322E5365742F
:1008760074696E67002000000000000000005F0041
:10088600000007000700147F147F14242A7F2A1211
:100896002313086462364955225000050300000000
:1008A6001C2241000041221C0014083E08140808BE
:1008B6003E0808005030000008080808080060607C
:1008C600000020100804023E5149453E00427F4088
:1008D6000042615149462141454B311814127F109F
:1008E60027454545393C4A494930017109050336D2
:1008F60049494936064949291E0036360000005640
:100906003600000814224100141414141400412265
:1009160014080201510906324979413E7E1111112E
:100926007E7F494949363E414141227F4141221C51
:100936007F494949417F090909013E4149497A7F71
:100946000808087F00417F41002040413F017F08A1
:100956001422417F404040407F020C027F7F040802
:10096600107F3E4141413E7F090909063E41512122
:100976005E7F09192946464949493101017F01012E
:100986003F4040403F1F2040201F3F4038403F63CC
:100996001408146307087008076151494543007F2E
:1009A60041410002040810200041417F0004020179
:1009B60002044040404040000102040020545454C8
:1009C600787F484444383844444420384444487F77
:1009D6003854545418087E0901020C5252523E7F74
:1009E6000804047800447D40002040443D007F1008
:1009F60028440000417F40007C041804787C0804E9
:100A0600047838444444387C141414080814141820
:100A16007C7C080404084854545420043F44402075
:100A26003C4040207C1C2040201C3C4030403C4444
:100A3600281028440C5050503C4464544C44000840
:100A460036410000007F000000413608001008080B
:080A5600100800000000000080
:00000001FF
