S00C0000524649442E73726563F3
S113000013C037C036C035C034C033C032C031C06D
S113001030C02FC02EC02DC02CC02BC02AC029C078
S113002028C027C026C06C0011241FBECFE5D4E031
S1130030DEBFCDBF10E0A0E6B0E0E0E1F4E002C036
S113004005900D92AC36B107D9F720E0ACE6B0E0EC
S113005001C01D92AD36B207E1F710E0C4E1D0E073
S113006003C02197FE01CCD1C331D107D1F711D000
S1130070CDC1C6CF83E389B980B5866880BD539A64
S113008008958DB181658DB987B38C6287BBC29A9F
S11300900895CF93DF93CDB7DEB760970FB6F8948A
S11300A0DEBF0FBECDBFEDDFE5DF8CE690E083D091
S11300B0A59AAD9A80E519D02FEF84E39CE02150F6
S11300C080409040E1F700C00000BE016F5F7F4FA9
S11300D08CE690E058D1EDCF8CE690E01ED00895E8
S11300E08FB9779BFECF8FB108955D9BFECF8CB9FE
S11300F08FE097E20197F1F700C000000895CF93D5
S1130100DF93EC018881882329F02196EEDF899121
S11301108111FCCFDF91CF91089587B3866087BBAF
S113012088B3866088BB0895C298862F880F867727
S11301308068D6DF80E0D4DFC29A0895CF93C42FBD
S1130140C298862F880F8677CBDF8C2FC9DFC29A9F
S1130150CF9108950F931F93CF93DF93EC01162F44
S1130160042FE2DF41E050E002C0440F551F0A951E
S1130170E2F7482B612FCE01E1DFDF91CF911F9190
S11301800F9108950F931F93CF93DF93EC01162FD4
S1130190042FCADF41E050E002C0440F551F0A9506
S11301A0E2F740954823612FCE01C8DFDF91CF915C
S11301B01F910F910895CF93DF93EC01C29A4FE002
S11301C061E0BCDF4DE86AE2CE01B8DF4EE36BE2EA
S11301D0CE01B4DF40E36DE2CE01B0DF46E065E17D
S11301E0CE01B8DF49E261E1CE01A8DF40E064E17D
S11301F0CE01B0DF41E064E1CE01ACDFDF91CF910D
S113020008958F929F92AF92BF92CF92DF92EF9216
S1130210FF920F931F93CF93DF937C015B016A01DD
S1130220922E832E47EF62E089DF47E064E0C70146
S1130230A9DF47E06AE0C7018DDF40E061E0C70164
S11302407DDF1C141D0454F4E501CA0CDB1C499128
S113025069E0C70173DFCC15DD05C9F74CE061E047
S1130260C7016CDF47E06DE0C70174DF64E0C701DC
S11302705BDFEFE0F7E23197F1F700C00000C8E17F
S1130280D0E00CC064E0C7014FDFEFE0F7E2319744
S1130290F1F700C00000219709F462C0817391F363
S11302A055C064E0C70140DF80FD4AC06AE0C70171
S11302B03BDFC82E6CE0C70137DF877090E0009702
S11302C081F02C2D30E021503109220F331F220FF1
S11302D0331F220F331F820F931FF80191838083F2
S11302E00BC08C2D90E0880F991F880F991F880FE1
S11302F0991FF801918380838C2D813108F080E16E
S1130300882331F0C82ED12C1C141D0424F011C0F4
S1130310CC24C394D12C092D182DC0E0D0E069E081
S1130320C70102DFF80181938F012196CC15DD0509
S1130330B4F340E061E0C70101DF81E090E016C062
S113034080E090E013C080E090E010C047E06DE0F2
S1130350C70118DF66E0C701E7DE8D71A1F7A1CF01
S113036047E06DE0C7010EDF80E090E0DF91CF91C0
S11303701F910F91FF90EF90DF90CF90BF90AF90BF
S11303809F908F900895CF92DF92EF92FF920F93F8
S11303901F93CF93DF9300D01F92CDB7DEB77C01BC
S11303A06B0182E5898347E06DE0C701C7DE8E01FA
S11303B00E5F1F4F960141E050E0BE016F5F7F4F1B
S11303C0C7011FDF892B71F08A819B81409719F047
S11303D080E690E094DE40E06DE0C701AFDE81E0AE
S11303E090E002C080E090E00F900F900F90DF91BA
S11303F0CF911F910F91FF90EF90DF90CF900895D0
S1130400EE0FFF1F0590F491E02D0994F894FFCFAF
S10F0410444F204441492053414921003D
S9030000FC
