S0150000417474696E7931332D546573742E7372656365
S113000009C00EC00DC00CC00BC00AC009C008C096
S113001007C006C011241FBECFE9CDBF27D045C0FD
S1130020EFCFBA9AC29A089512BEC29892B79E3080
S1130030E8F320E030E0482F50E0CA01022E02C06D
S1130040959587950A94E2F780FF02C0C29A01C091
S1130050C29882B78E30E8F32F5F3F4F28303105C6
S113006061F7C29882B78E30E8F3089582E08FBDBD
S113007083BF8EE086BFD5DF7894BC9AC49881EFA5
S1130080D3DF2FE78CEF9AE0215080409040E1F7D6
S113009000C00000C49A2FE78CEF9AE02150804002
S11100A09040E1F700C00000E9CFF894FFCFD4
S9030000FC
