S01000004B6579426F6172642E7372656303
S113000084C006C1A7C0A6C0A5C0A4C0A3C0A2C086
S1130010A1C0A0C09FC09EC09DC09CC09BC09AC0F0
S113002099C098C097C098C3A4C276C375C374C35B
S113003073C372C371C343C256C26EC36DC36CC370
S113004050C241C274C347C255C266C365C31DC210
S113005044C2D8C31CC25CC254C25EC35DC37AC36B
S113006038C217C232C22DC25AC256C355C321C2A6
S1130070C7C313C210C233C259C24EC34DC34CC30B
S113008016C20FC224C259C25FC246C345C3A9C225
S11300900AC205C210C266C25EC23EC33DC3A8C244
S11300A0AEC203C290C209C26BC236C335C334C3E5
S11300B091C232C37AC26BC22FC32EC319C32CC3DD
S11300C0E2C17AC229C36AC227C326C325C324C393
S11300D023C322C321C320C399C21EC31DC3B2C2FA
S11300E01BC3CEC2E7C218C317C316C3A1C296C2AC
S11300F0B3C2D0C2D5C2E8C20FC304C30DC38CC2FD
S1130100B5C288C285C2EAC2D80011241FBECFE599
S1130110D4E0DEBFCDBF10E0A0E6B0E0E4E2F8E05A
S113012002C005900D92A836B107D9F720E0A8E6E1
S1130130B0E001C01D92A837B207E1F710E0C5E8AE
S1130140D0E003C02197FE0165D3C438D107D1F7AD
S11301501CD066C355CF10BC83E389B980B58668CB
S113016080BD539A08955D9BFECF8CB90895CF93BB
S1130170DF93EC018881882329F02196F4DF8991AB
S11301808111FCCFDF91CF910895E5DF80E690E007
S1130190EEDF88E690E011D0A59A789488E690E0A6
S11301A030D08823D9F388E690E05FD1DCDFF6CF46
S11301B088E690E001D00895089510927700109297
S11301C076001092750010927400109273001092D1
S11301D07200109271001092700010926F001092D1
S11301E06E0010926D0010926C0081E080936A00A2
S11301F08B98939A85B7826085BF8BB780648BBFD9
S113020008959091750081E0911101C080E00895F6
S11302101F920F920FB60F9211242F938F939F93D7
S113022080916F00882309F444C080916D009091FF
S11302306E00019690936E0080936D0080916D0026
S113024090916E008A30910534F48230910564F403
S1130250019741F0B1C08B309105E9F0A4F00C97FF
S1130260E9F0AAC09398A8C080916C0080FF02C0F6
S1130270939A01C0939880916C0090E0959587952E
S113028080936C0099C080916B00882311F0939A3D
S113029093C0939891C0939A8B988EC0839903C00E
S11302A010926A0003C081E080936A0010926F008C
S11302B083C080B383FB882780F9909177009923CA
S11302C029F090917700993008F467C08091770005
S11302D08F5F80937700809177008B3009F06CC03A
S11302E080917600873791F140F48835F1F08935B3
S11302F099F0823109F043C00FC0803F29F08A3F52
S113030039F0803EE1F532C081E08093720040C054
S113031081E0809369003CC09091720081E089275C
S1130320809374001092720033C08091720088230D
S113033019F0109272002CC09091730081E089270B
S11303408093730088E58093750022C080917200C9
S1130350811109C09091710081E089278093710017
S113036087E7809375001092720012C0909170001C
S113037081E08927809370001092720009C09091E7
S11303807200992319F01092720002C080937500D4
S113039010927600109277000FC02091770090E0C1
S11303A0215002C0880F991F2A95E2F79091760098
S11303B0892B809376008ACF9F918F912F910F90F4
S11303C00FBE0F901F90189581E090E020E030E080
S11303D070E0AB01022E02C0559547950A94E2F7EE
S11303E040FD01962F5F3F4F2830310591F7817012
S11303F00895CF93C1E0C0936F0010926E001092E5
S11304006D0060936C00E0DF80936A00C0936A0023
S113041081B38C6081BB939A92982FE788E391E033
S1130420215080409040E1F700C000009398929AD8
S11304308A9880916A008111FCCF10926F00CF914D
S113044008951F93CF93DF93EC01162F1092690048
S11304506DEECFDF809169008823E1F3612FCE0137
S1130460C8DFDF91CF911F910895CF93C09175009C
S11304704C2F50E0FA013D97E137F10508F04CC1EB
S1130480ED5EFF4F0994CAE0C0C1C3E651C1C5E6A1
S11304904FC1C6E64DC1C7E64BC1C8E649C1C9E66E
S11304A047C1CAE645C1CBE643C1CCE641C1CDE66E
S11304B03FC1CEE63DC1CFE63BC1C0E739C1C1E78C
S11304C037C1C2E735C1C3E733C1C4E731C1C5E7AA
S11304D02FC1C6E72DC1C7E72BC1C8E729C1C9E7AA
S11304E027C1CAE725C180917400882309F436C165
S11304F0C1E28BC180917400882309F431C1C0E446
S113050084C180917400882309F42CC1C3E27DC1A5
S113051080917400882309F427C1C4E276C18091D4
S11305207400882309F422C1C5E26FC1809174006C
S1130530882309F46AC1CEE568C1809174008823D8
S113054009F416C1C6E261C180917400882309F4DC
S113055011C1CAE25AC180917400882309F40CC104
S1130560C8E253C180917400882309F407C1C9E229
S11305704CC180917400882309F402C1CEE745C1BF
S113058080917400882309F4FDC0CFE53EC18091B9
S11305907400882309F4F8C0CDE337C18091740056
S11305A0882309F4F3C0CCE730C180917400882318
S11305B009F4EEC0CBE729C180917400882309F4C3
S11305C0E9C0CDE722C180917400882309F4E4C016
S11305D0CAE31BC180917400882309F4DFC0C2E21E
S11305E014C180917400882309F4DAC0CCE30DC1EE
S11305F080917400882309F4D5C0CEE306C18091AC
S11306007400882309F4D0C0CFE3FFC0C0E8FDC064
S1130610CAE2FBC0CDE2F9C0CBE2F7C08091700022
S11306208111C4C0809171008111C2C0C0E0EDC0CD
S1130630809170008111BEC0809171008111BCC095
S1130640C0E0E3C0809170008111B8C08091710056
S11306508111B6C0C0E0D9C0809170008111B2C0D0
S1130660809171008111B0C0C0E0CFC08091700052
S11306708111ACC0809171008111AAC0C0E0C5C0D5
S1130680809170008111A6C0809171008111A4C075
S1130690C0E0BBC0809171008111A0C0C0E0B5C0B2
S11306A08091700081119CC08091710081119AC069
S11306B0C0E0ABC080917000811196C08091710040
S11306C0811194C0C0E0A1C080917000811190C0DC
S11306D08091710081118EC0C0E097C0809170003C
S11306E081118AC080917100811188C0C0E08DC0E1
S11306F020917300222319F064E0A3DE86C060E039
S1130700A0DE83C020917100222319F062E099DEFB
S11307100FC060E096DE0CC02FEF84E39CE0215014
S113072080409040E1F700C00000C0E06EC0C1E628
S113073080917400882329F080917300882309F440
S113074063C080917400811160C080917300811135
S11307505BC05BC0C0E259C0C9E057C0C1E355C02B
S1130760C2E353C0C3E351C0C4E34FC0C5E34DC0AB
S1130770C7E34BC0C8E349C0C9E347C0C0E345C0B1
S1130780C0E643C0CDE241C0CBE23FC0CCE53DC0B2
S1130790CBE53BC0CDE539C0CBE337C0C7E235C0BC
S11307A0CCE233C0CEE231C0CFE22FC0C4E82DC0CA
S11307B0CEE22BC0C3E829C0C0E327C0C6E825C0E9
S11307C0C1E323C0C2E821C0C2E31FC0C8E81DC002
S11307D0C3E31BC0C3E819C0C4E317C0C5E315C015
S11307E0C4E813C0C6E311C0C5E80FC0C7E30DC019
S11307F0C1E80BC0C8E309C0C7E807C0C9E305C026
S1130800C2E696CFC4E694CFC052109275008C2FE6
S1130810CF910895EE0FFF1F0590F491E02D0994F8
S1070820F894FFCF76
S10B0824426567696E210A00B8
S9030000FC
