:1000000084C06FC2A7C0A6C0A5C0A4C0A3C0A2C020
:10001000A1C0A0C09FC09EC09DC09CC09BC09AC0F4
:1000200099C098C097C02BC28DC1F5C1F4C1F3C16E
:10003000F2C1F1C1F0C137C150C1EDC1ECC1EBC19A
:1000400044C135C100C23BC14EC1E5C1E4C111C1CB
:1000500038C113C210C153C14CC1DDC1DCC1DBC109
:100060002CC10BC126C121C150C1D5C1D4C115C1FC
:1000700002C207C104C127C14EC1CDC1CCC1CBC191
:100080000AC103C118C14CC151C1C5C1C4C18AC193
:10009000FEC0F9C004C11BC14FC1BDC1BCC188C1F4
:1000A0008DC1F7C073C1FDC053C1B5C1B4C1B3C1E7
:1000B00073C1B1C15FC152C1AEC1ADC19BC1ABC1C2
:1000C000D6C05EC1A8C150C1A6C1A5C1A4C1A3C16B
:1000D000A2C1A1C1A0C19FC1D4C19DC19CC174C115
:1000E0009AC174C175C197C196C195C173C174C1DC
:1000F00075C191C175C176C177C18DC18CC18BC1EC
:1001000075C189C188C174C18E0311241FBECFE59A
:10011000D4E0DEBFCDBF10E0A0E6B0E0E4E3F7E05E
:1001200002C005900D92A836B107D9F720E0A8E6E5
:10013000B0E001C01D92A937B207E1F710E0C5E8B1
:10014000D0E003C02197FE01EDD2C438D107D1F72A
:10015000C4D2EEC255CF81E090E020E030E070E004
:10016000AB01022E02C0559547950A94E2F740FD77
:1001700001962F5F3F4F2830310591F78170089528
:1001800021E020936E0010926D0010926C0060933D
:100190006B0020936A00DFDF809369008B9A8A9A54
:1001A000939A92982FE788E391E021508040904005
:1001B000E1F700C000009398929A8A9880916A00B3
:1001C0008111FCCF10926E0008950895109277006F
:1001D00010927600109275001092720010927100C9
:1001E0001092700010926F001092740010927300C1
:1001F00010926E0010926D0010926C0010926B00C5
:1002000081E080936A008A98929A8B98939A85B736
:10021000826085BF8BB780648BBF08951F93CF9397
:10022000DF93EC01162F109268006DEEA9DF80912C
:1002300068008823E1F3612FCE01A2DFDF91CF9127
:100240001F9108959091760081E0911101C080E0A6
:100250000895CF93C09176004C2F50E0FA013D975E
:10026000E137F10508F0D7C0ED5EFF4F0994CAE011
:1002700033C1C3E6EEC0C5E6ECC0C6E6EAC0C7E6D9
:10028000E8C0C8E6E6C0C9E6E4C0CAE6E2C0CBE61C
:10029000E0C0CCE6DEC0CDE6DCC0CEE6DAC0CFE61C
:1002A000D8C0C0E7D6C0C1E7D4C0C2E7D2C0C3E758
:1002B000D0C0C4E7CEC0C5E7CCC0C6E7CAC0C7E758
:1002C000C8C0C8E7C6C0C9E7C4C0CAE7C2C08091F9
:1002D00072008111D8C0C0E3FFC08091720081110B
:1002E000D4C0C1E3F9C0809172008111D0C0C2E3D3
:1002F000F3C0809172008111CCC0C3E3EDC0809146
:1003000072008111C8C0C4E3E7C0809172008111FE
:10031000C4C0C5E3E1C0809172008111C0C0DCC0DF
:10032000809172008111BDC0C7E3D6C08091720078
:100330008111B9C0C8E3D0C0809172008111B5C0ED
:10034000C9E3CAC0809172008111B1C0C0E6C4C0C7
:10035000809172008111ADC0CDE2BEC0809172006B
:100360008111A9C0CDE3B8C0809172008111A5C0F0
:10037000CCE5B2C0809172008111A1C0CBE5ACC0C8
:100380008091720081119DC0CDE5A6C08091720060
:10039000811199C0CBE3A0C080917200811195C0FA
:1003A000C7E29AC080917200811191C0CCE294C0E2
:1003B0008091720081118DC0CEE28EC0809172005A
:1003C000811189C0CFE288C0C7E886C0C3E884C075
:1003D000C8E882C0C9E880C0CAE87EC0C2E87CC064
:1003E000C4E87AC0C1E878C0CBE876C0C5E874C07C
:1003F000C6E872C020916F00211102C0CDE801C093
:10040000CCE820916F00222319F064E007DF1CC0C4
:1004100060E004DF19C02FEF84E39CE021508040AE
:100420009040E1F700C00000109275001092720039
:10043000109271001092700010927400109273006C
:1004400010926F0001C0C1E68FE98C0F8A3108F06D
:1004500043C080917200882321F080916F0088232F
:1004600041F080917200811137C080916F00882324
:1004700099F1C05231C0C2E6ECCFC4E6EACFC9E080
:100480002BC0C0E829C0C9E227C0C1E225C0C0E432
:1004900023C0C3E221C0C4E21FC0C5E21DC0CEE537
:1004A0001BC0C6E219C0CAE217C0C8E215C0CEE739
:1004B00013C0CFE511C0CBE20FC0CCE70DC0CBE736
:1004C0000BC0CDE709C0CAE307C0C2E205C0CCE358
:1004D00003C0CEE301C0CFE3109276008C2FCF9102
:1004E00008951F920F920FB60F9211242F933F93EE
:1004F0008F939F9380916E00882309F444C080916C
:100500006C0090916D00019690936D0080936C004B
:1005100080916C0090916D008A30910534F48230A6
:10052000910564F4019741F0B5C08B309105E9F075
:10053000A4F00C97E9F0AEC09398ACC080916B002A
:1005400080FF02C0939A01C0939880916B0090E065
:100550009595879580936B009DC080916900882355
:1005600011F0939A97C0939895C0939A8B9892C0E4
:10057000839903C010926A0003C081E080936A00EF
:1005800010926E0087C090B380917500882329F087
:10059000809175008B3008F46BC0809175008F5F7F
:1005A00080937500809175008B3009F073C0809145
:1005B00077008835E9F140F48231F9F0843179F13E
:1005C000813109F046C022C0803E99F018F4893587
:1005D000A1F03FC0803F19F08A3F39F03AC081E076
:1005E00080937300109274003EC081E08093680095
:1005F0003AC081E08093740036C09091730081E02E
:10060000892780937200109273002DC0909173001F
:1006100081E08927809370001092730024C090912C
:10062000730081E0892780937100109273001BC0D2
:100630008091730081110AC09091730081E0892735
:1006400080936F0088E5809376000DC01092730050
:100650000AC090917300992321F081E08093730088
:1006600002C080937600109277001092750012C03D
:100670008091750093FB222720F930E0815002C061
:10068000220F331F8A95E2F780917700282B209361
:10069000770083CF9F918F913F912F910F900FBE45
:1006A0000F901F90189510BC83E389B980B58668B8
:1006B00080BD539A08955D9BFECF8CB90895CF936A
:1006C000DF93EC018881882329F02196F4DF89915A
:1006D0008111FCCFDF91CF910895E5DF80E690E0B6
:1006E000EEDFA59AAD9A88E790E070DD789488E710
:1006F00090E0A8DD8823D9F388E790E0AADDC82F31
:10070000DADFC636A1F7AD982FEF84E39CE02150E5
:1007100080409040E1F700C00000E9CF88E790E01A
:1007200054DD0895EE0FFF1F0590F491E02D09941C
:04073000F894FFCF6B
:08073400426567696E210A00AD
:00000001FF
