S01000004B6579626F6172642E73726563E3
S113000084C05DC2A7C0A6C0A5C0A4C0A3C0A2C02E
S1130010A1C0A0C09FC09EC09DC09CC09BC09AC0F0
S113002099C098C097C014C28DC1F0C1EFC1EEC190
S1130030EDC1ECC1EBC137C150C1E8C1E7C1E6C1B4
S113004044C135C1EDC13BC14EC1E0C1DFC111C1E5
S113005038C12EC210C153C14CC1D8C1D7C1FAC1D5
S11300602CC10BC126C121C150C1D0C1CFC115C102
S11300701DC207C104C127C14EC1C8C1C7C1C6C181
S11300800AC103C118C14CC151C1C0C1BFC18AC199
S1130090FEC0F9C004C11BC14FC1B8C1B7C188C1FA
S11300A08DC1F7C073C1FDC053C1B0C1AFC1AEC1F2
S11300B073C1ACC15FC152C1A9C1A8C19DC1A6C1D0
S11300C0D6C05EC1A3C150C1A1C1A0C19FC19EC180
S11300D09DC19CC19BC19AC177C198C197C176C18A
S11300E095C176C177C192C191C190C175C176C1E4
S11300F077C18CC177C178C179C188C187C186C1F4
S113010077C184C183C176C16D0311241FBECFE5BD
S1130110D4E0DEBFCDBF10E0A0E6B0E0E2EFF6E051
S113012002C005900D92A836B107D9F720E0A8E6E1
S1130130B0E001C01D92A937B207E1F710E0C5E8AD
S1130140D0E003C02197FE01CCD2C438D107D1F747
S1130150B0D2CDC255CF81E090E020E030E070E035
S1130160AB01022E02C0559547950A94E2F740FD73
S113017001962F5F3F4F2830310591F78170089524
S113018021E020936E0010926D0010926C00609339
S11301906B0020936A00DFDF809369008B9A8A9A50
S11301A0939A92982FE788E391E021508040904001
S11301B0E1F700C000009398929A8A9880916A00AF
S11301C08111FCCF10926E0008950895109277006B
S11301D010927600109275001092720010927100C5
S11301E01092700010926F001092740010927300BD
S11301F010926E0010926D0010926C0010926B00C1
S113020081E080936A008A98929A8B98939A85B732
S1130210826085BF8BB780648BBF08951F93CF9393
S1130220DF93EC01162F109268006DEEA9DF809128
S113023068008823E1F3612FCE01A2DFDF91CF9123
S11302401F9108959091760081E0911101C080E0A2
S11302500895CF93C09176004C2F50E0FA013D975A
S1130260E137F10508F0D2C0ED5EFF4F0994CAE012
S113027021C1C3E6DBC0C5E6D9C0C6E6D7C0C7E620
S1130280D5C0C8E6D3C0C9E6D1C0CAE6CFC0CBE664
S1130290CDC0CCE6CBC0CDE6C9C0CEE6C7C0CFE664
S11302A0C5C0C0E7C3C0C1E7C1C0C2E7BFC0C3E7A0
S11302B0BDC0C4E7BBC0C5E7B9C0C6E7B7C0C7E7A0
S11302C0B5C0C8E7B3C0C9E7B1C0CAE7AFC0809141
S11302D072008111C1C0C0E3EDC080917200811130
S11302E0BDC0C1E3E7C0809172008111B9C0C2E30F
S11302F0E1C0809172008111B5C0C3E3DBC080917D
S113030072008111B1C0C4E3D5C080917200811123
S1130310ADC0C5E3CFC0809172008111A9C0CAC02D
S1130320809172008111A6C0C7E3C4C0809172009D
S11303308111A2C0C8E3BEC08091720081119EC029
S1130340C9E3B8C08091720081119AC0C0E6B2C0FE
S113035080917200811196C0CDE2ACC08091720090
S1130360811192C0CDE3A6C08091720081118EC02C
S1130370CCE5A0C08091720081118AC0CBE59AC0FF
S113038080917200811186C0CDE594C08091720085
S1130390811182C0CBE38EC08091720081117EC036
S11303A0C7E288C08091720081117AC0CCE282C019
S11303B080917200811176C0CEE27CC0809172007F
S11303C0811172C0CFE276C0C0E874C0C7E872C0C1
S11303D0C3E870C0C8E86EC0C9E86CC0CAE86AC0A7
S11303E0C2E868C0C4E866C0C1E864C0CBE862C0C3
S11303F0C5E860C0C6E85EC020916F00222319F0F2
S113040064E00CDF57C060E009DF54C02FEF84E3E1
S11304109CE0215080409040E1F700C0000001C002
S1130420C1E68FE98C0F8A3108F044C080917200D4
S1130430882321F080916F00882341F0809172001D
S1130440811138C080916F008823A1F1C05232C05D
S1130450C9E030C0C0E22EC0C9E22CC0C1E22AC04B
S1130460C0E428C0C3E226C0C4E224C0C5E222C05E
S1130470CEE520C0C6E21EC0CAE21CC0C8E21AC053
S1130480CEE718C0CFE516C0CBE214C0CCE712C04B
S1130490CBE710C0CDE70EC0CAE30CC0C2E20AC06D
S11304A0CCE308C0CEE306C0CFE304C0C2E6BECFAF
S11304B0C4E6BCCF109276008C2FCF9108951F9282
S11304C00F920FB60F9211242F933F938F939F9304
S11304D080916E00882309F444C080916C0090914F
S11304E06D00019690936D0080936C0080916C0078
S11304F090916D008A30910534F48230910564F452
S1130500019741F0B3C08B309105E9F0A4F00C974A
S1130510E9F0ACC09398AAC080916B0080FF02C040
S1130520939A01C0939880916B0090E0959587957C
S113053080936B009BC080916900882311F0939A8B
S113054095C0939893C0939A8B9890C0839903C055
S113055010926A0003C081E080936A0010926E00DA
S113056085C090B380917500882329F0809175002F
S11305708B3008F469C0809175008F5F809375009B
S1130580809175008B3009F071C0809177008835B7
S1130590E9F140F48231F9F0843179F1813109F0E3
S11305A045C022C0803E99F018F48935A1F03EC0C0
S11305B0803F19F08A3F39F039C081E0809373009D
S11305C0109274003CC081E08093680038C081E0E0
S11305D08093740034C09091730081E089278093E4
S11305E07200109273002BC09091730081E08927F0
S11305F0809370001092730022C09091730081E088
S11306008927809371001092730019C09091730030
S1130610992319F01092730009C020916F0091E0A2
S1130620922790936F0098E59093760090917300D1
S1130630992319F01092730002C0809376001092EF
S113064077001092750012C08091750093FB2227E9
S113065020F930E0815002C0220F331F8A95E2F75F
S113066080917700282B2093770085CF9F918F91DD
S11306703F912F910F900FBE0F901F90189510BCB3
S113068083E389B980B5866880BD539A08955D9BDC
S1130690FECF8CB90895CF93DF93EC018881882332
S11306A029F02196F4DF89918111FCCFDF91CF915C
S11306B00895E5DF80E690E0EEDFA59A88E790E014
S11306C085DD7894AD9A88E790E0BCDD8823D1F38A
S11306D088E790E0BEDDDBDFF5CF88E790E075DDED
S11306E00895EE0FFF1F0590F491E02D0994F894FE
S10506F0FFCF36
S10B06F2426567696E210A00EC
S9030000FC
